{
	"data": {
		"bytecode": {
			"linkReferences": {},
			"object": "6080604052600180556101f4600555606460065566038d7ea4c68000600755348015610029575f5ffd5b50604051611e9c380380611e9c83398101604081905261004891610122565b338061006d57604051631e4fbdf760e01b81525f600482015260240160405180910390fd5b610076816100b8565b50600280546001600160a01b039384166001600160a01b0319918216179091556003805492909316918116919091179091556008805490911633179055610153565b5f80546001600160a01b038381166001600160a01b0319831681178455604051919092169283917f8be0079c531659141344cd1fd0a4f28419497f9722a3daafe3b4186f6b6457e09190a35050565b80516001600160a01b038116811461011d575f5ffd5b919050565b5f5f60408385031215610133575f5ffd5b61013c83610107565b915061014a60208401610107565b90509250929050565b611d3c806101605f395ff3fe608060405260043610610198575f3560e01c80638da5cb5b116100e7578063e744092e11610087578063eec8138e11610062578063eec8138e14610500578063f0f442601461056e578063f2fde38b1461058d578063fa968eea146105ac575f5ffd5b8063e744092e146104a8578063e859e56c146104d6578063ec979082146104eb575f5ffd5b8063b187bd26116100c2578063b187bd2614610414578063c1de134314610444578063e4cfcc2314610457578063e50e64d514610489575f5ffd5b80638da5cb5b146103ba578063913b2dba146103d6578063addf3804146103f5575f5ffd5b80635cabbbf81161015257806370e5deb91161012d57806370e5deb9146102dd578063715018a6146102fc5780637c16cd9e146103105780637d06a8e11461032f575f5ffd5b80635cabbbf81461028057806361d027b31461029f578063677bd9ff146102be575f5ffd5b806304f3bcec146101a357806310fbebf7146101df57806316c38b3c146102005780631df4ccfc1461021f5780634e543b261461024257806356caefb214610261575f5ffd5b3661019f57005b5f5ffd5b3480156101ae575f5ffd5b506003546101c2906001600160a01b031681565b6040516001600160a01b0390911681526020015b60405180910390f35b3480156101ea575f5ffd5b506101fe6101f936600461161d565b6105c1565b005b34801561020b575f5ffd5b506101fe61021a366004611641565b610663565b34801561022a575f5ffd5b5061023460055481565b6040519081526020016101d6565b34801561024d575f5ffd5b506101fe61025c366004611677565b610689565b34801561026c575f5ffd5b506101fe61027b366004611677565b6106b3565b34801561028b575f5ffd5b506101fe61029a366004611692565b6106dd565b3480156102aa575f5ffd5b506008546101c2906001600160a01b031681565b3480156102c9575f5ffd5b506101fe6102d836600461161d565b61094c565b3480156102e8575f5ffd5b506101fe6102f736600461161d565b610c70565b348015610307575f5ffd5b506101fe610cfb565b34801561031b575f5ffd5b506101fe61032a36600461161d565b610d0e565b34801561033a575f5ffd5b506103896103493660046116ce565b600b60209081525f92835260408084209091529082529020805460018201546002909201549091906001600160a01b03811690600160a01b900460ff1684565b6040516101d6949392919093845260208401929092526001600160a01b031660408301521515606082015260800190565b3480156103c5575f5ffd5b505f546001600160a01b03166101c2565b3480156103e1575f5ffd5b506101fe6103f03660046116f1565b610d5c565b348015610400575f5ffd5b506002546101c2906001600160a01b031681565b34801561041f575f5ffd5b5060085461043490600160a01b900460ff1681565b60405190151581526020016101d6565b6101fe610452366004611728565b610dfb565b348015610462575f5ffd5b5061047661047136600461161d565b6110dd565b6040516101d6979695949392919061179d565b348015610494575f5ffd5b506101fe6104a336600461161d565b611236565b3480156104b3575f5ffd5b506104346104c2366004611677565b600c6020525f908152604090205460ff1681565b3480156104e1575f5ffd5b5061023460065481565b3480156104f6575f5ffd5b5061023460045481565b34801561050b575f5ffd5b5061055b61051a36600461161d565b600a6020525f90815260409020805460018201546002830154600384015460049094015460ff80851695610100860482169562010000900490911693929187565b6040516101d6979695949392919061182c565b348015610579575f5ffd5b506101fe610588366004611677565b61133e565b348015610598575f5ffd5b506101fe6105a7366004611677565b611368565b3480156105b7575f5ffd5b5061023460075481565b6001546001146105ec5760405162461bcd60e51b81526004016105e39061186e565b60405180910390fd5b60026001555f818152600a602052604090208054610100900460ff168061062e57506003815462010000900460ff16600381111561062c5761062c6117f8565b145b610636575f5ffd5b5f8281526009602052604090206005015461065b9083906001600160a01b03166113a5565b505060018055565b61066b61141c565b60088054911515600160a01b0260ff60a01b19909216919091179055565b61069161141c565b600380546001600160a01b0319166001600160a01b0392909216919091179055565b6106bb61141c565b600280546001600160a01b0319166001600160a01b0392909216919091179055565b6106e561141c565b5f828152600a60205260409020805460ff161561072f5760405162461bcd60e51b815260206004820152600860248201526714995cdbdb1d995960c21b60448201526064016105e3565b5f83815260096020526040808220600380546004808401546002850154938501546005860154965163fce6093d60e01b81526001600160a01b039283169381019390935269ffffffffffffffffffff8a16602484015260448301949094526064820193909352600160a01b90940460ff161515608485015291939283928392169063fce6093d9060a401606060405180830381865afa1580156107d4573d5f5f3e3d5ffd5b505050506040513d601f19601f820116820180604052508101906107f89190611891565b9250925092508061083b5760405162461bcd60e51b815260206004820152600d60248201526c125b9d985b1a5908149bdd5b99609a1b60448201526064016105e3565b8260ff1660021461084d576001610850565b60025b8554869062ff0000191662010000836003811115610870576108706117f8565b0217905550845460ff191660011785556002855462010000900460ff16600381111561089e5761089e6117f8565b146108ad5784600301546108b3565b84600201545b600486018190551580156108ca57505f8560010154115b156108f357600584015460085460018701546108f3926001600160a01b03908116921690611448565b867fcc1bc25c4d52370e9824dcad12774be2826bee7223a1605ab5ca6e6f6899c33e865f0160029054906101000a900460ff1684886001015460405161093b939291906118d6565b60405180910390a250505050505050565b60015460011461096e5760405162461bcd60e51b81526004016105e39061186e565b60026001555f818152600a60209081526040808320600b8352818420338552909252909120815460ff1680156109b057506002810154600160a01b900460ff16155b80156109c357508154610100900460ff16155b6109f95760405162461bcd60e51b8152602060048201526007602482015266125b9d985b1a5960ca1b60448201526064016105e3565b5f6002835462010000900460ff166003811115610a1857610a186117f8565b14610a50576001835462010000900460ff166003811115610a3b57610a3b6117f8565b14610a46575f610a53565b8160010154610a53565b81545b90505f8111610a8d5760405162461bcd60e51b81526020600482015260066024820152652737902bb4b760d11b60448201526064016105e3565b60028281018054600160a01b60ff60a01b198216179091559054600185015460048087015460055460065460405163c494293b60e01b815293840188905260248401949094526044830191909152606482015260848101919091526001600160a01b03928316151560a48201525f929091169063c494293b9060c401608060405180830381865afa158015610b24573d5f5f3e3d5ffd5b505050506040513d601f19601f82011682018060405250810190610b489190611909565b5f8681526009602052604090206005015481519192506001600160a01b031690610b759082903390611448565b602082015115610c21576008546040830151610b9e9183916001600160a01b0390911690611448565b606082015115610bc95760028401546060830151610bc99183916001600160a01b0390911690611448565b6040828101516060808501516002880154845193845260208401919091526001600160a01b031682840152915188927f0a9bf971e981640800491c99d4d27d2fdaefc93ad9f7011472259abdf8c6ba1e928290030190a25b81516020808401516040805193845291830152339188917f6256309dc4c6375473b26b31fc0e88b0ca9ebca0e558d39fec5aa96863ad40cb91015b60405180910390a350506001805550505050565b600154600114610c925760405162461bcd60e51b81526004016105e39061186e565b60026001555f818152600a602090815260408083206009909252909120815460ff16158015610cd157506002810154610cce906203f480611980565b42115b610cd9575f5ffd5b6005810154610cf29084906001600160a01b03166113a5565b50506001805550565b610d0361141c565b610d0c5f6114ca565b565b610d1661141c565b5f818152600a6020526040808220805462ffffff1916620301011790555182917f2ca440fb7fca85d7f55d395a4abd94817330b83a62f3502efbb4770144e4ca9791a250565b610d6461141c565b60048054905f610d7383611999565b90915550506004545f9081526009602052604090208190610d948282611b70565b50610da7905060c0820160a08301611677565b6004546001600160a01b0391909116907f6bfe994aa671108bc4fcb31c2a97ab16ddb967720121010032b2e834bf5eacf6610de284806119b1565b604051610df0929190611cc1565b60405180910390a350565b600154600114610e1d5760405162461bcd60e51b81526004016105e39061186e565b6002600155600854600160a01b900460ff1615610e655760405162461bcd60e51b815260206004820152600660248201526514185d5cd95960d21b60448201526064016105e3565b5f848152600a602090815260408083206009909252909120815460ff16158015610e9657508154610100900460ff16155b8015610ea55750806002015442105b610edb5760405162461bcd60e51b8152602060048201526007602482015266125b9d985b1a5960ca1b60448201526064016105e3565b600754841015610f175760405162461bcd60e51b8152602060048201526007602482015266131bddc810995d60ca1b60448201526064016105e3565b60058101546001600160a01b0316610f6857833414610f635760405162461bcd60e51b81526020600482015260086024820152671155120811985a5b60c21b60448201526064016105e3565b610f82565b6005810154610f82906001600160a01b0316333087611519565b50505f848152600b60209081526040808320338452909152902060028101546001600160a01b0316158015610fbf57506001600160a01b03821615155b8015610fd457506001600160a01b0382163314155b15610ff7576002810180546001600160a01b0319166001600160a01b0384161790555b5f858152600a6020526040902084156110415783825f015f82825461101c9190611980565b9250508190555083816002015f8282546110369190611980565b909155506110749050565b83826001015f8282546110549190611980565b9250508190555083816003015f82825461106e9190611980565b90915550505b83816001015f8282546110879190611980565b909155505060028201546040805186815287151560208201526001600160a01b0390921690820152339087907f1f6e85c010a3003b061f788065fddd4a159e8fae2662ba5afe75f5583c89b65b90606001610c5c565b60096020525f90815260409020805481906110f7906119fb565b80601f0160208091040260200160405190810160405280929190818152602001828054611123906119fb565b801561116e5780601f106111455761010080835404028352916020019161116e565b820191905f5260205f20905b81548152906001019060200180831161115157829003601f168201915b505050505090806001018054611183906119fb565b80601f01602080910402602001604051908101604052809291908181526020018280546111af906119fb565b80156111fa5780601f106111d1576101008083540402835291602001916111fa565b820191905f5260205f20905b8154815290600101906020018083116111dd57829003601f168201915b50505050600283015460038401546004850154600590950154939491939092506001600160a01b0391821691811690600160a01b900460ff1687565b61123e61141c565b5f818152600a602052604090205460ff16801561127857505f81815260096020526040902060020154611275906301e13380611980565b42115b611280575f5ffd5b5f818152600960205260409020600501546001600160a01b0316806112bb576008546112b7905f906001600160a01b031647611448565b5050565b6008546040516370a0823160e01b81523060048201526112b7916001600160a01b0390811691908416906370a0823190602401602060405180830381865afa158015611309573d5f5f3e3d5ffd5b505050506040513d601f19601f8201168201806040525081019061132d9190611cef565b6001600160a01b0384169190611580565b61134661141c565b600880546001600160a01b0319166001600160a01b0392909216919091179055565b61137061141c565b6001600160a01b03811661139957604051631e4fbdf760e01b81525f60048201526024016105e3565b6113a2816114ca565b50565b5f828152600b602090815260408083203384529091528120600181015481549192916113d19190611980565b90505f811180156113ee57506002820154600160a01b900460ff16155b6113f6575f5ffd5b60028201805460ff60a01b1916600160a01b179055611416833383611448565b50505050565b5f546001600160a01b03163314610d0c5760405163118cdaa760e01b81523360048201526024016105e3565b6001600160a01b0383166114b1575f826001600160a01b0316826040515f6040518083038185875af1925050503d805f811461149f576040519150601f19603f3d011682016040523d82523d5f602084013e6114a4565b606091505b5050905080611416575f5ffd5b6114c56001600160a01b0384168383611580565b505050565b5f80546001600160a01b038381166001600160a01b0319831681178455604051919092169283917f8be0079c531659141344cd1fd0a4f28419497f9722a3daafe3b4186f6b6457e09190a35050565b6040516001600160a01b0384811660248301528381166044830152606482018390526114169186918216906323b872dd906084015b604051602081830303815290604052915060e01b6020820180516001600160e01b0383818316178352505050506115b1565b6040516001600160a01b038381166024830152604482018390526114c591859182169063a9059cbb9060640161154e565b5f5f60205f8451602086015f885af1806115d0576040513d5f823e3d81fd5b50505f513d915081156115e75780600114156115f4565b6001600160a01b0384163b155b1561141657604051635274afe760e01b81526001600160a01b03851660048201526024016105e3565b5f6020828403121561162d575f5ffd5b5035919050565b80151581146113a2575f5ffd5b5f60208284031215611651575f5ffd5b813561165c81611634565b9392505050565b6001600160a01b03811681146113a2575f5ffd5b5f60208284031215611687575f5ffd5b813561165c81611663565b5f5f604083850312156116a3575f5ffd5b82359150602083013569ffffffffffffffffffff811681146116c3575f5ffd5b809150509250929050565b5f5f604083850312156116df575f5ffd5b8235915060208301356116c381611663565b5f60208284031215611701575f5ffd5b813567ffffffffffffffff811115611717575f5ffd5b820160e0818503121561165c575f5ffd5b5f5f5f5f6080858703121561173b575f5ffd5b84359350602085013561174d81611634565b925060408501359150606085013561176481611663565b939692955090935050565b5f81518084528060208401602086015e5f602082860101526020601f19601f83011685010191505092915050565b60e081525f6117af60e083018a61176f565b82810360208401526117c1818a61176f565b6040840198909852505060608101949094526001600160a01b039283166080850152911660a0830152151560c09091015292915050565b634e487b7160e01b5f52602160045260245ffd5b6004811061182857634e487b7160e01b5f52602160045260245ffd5b9052565b8715158152861515602082015260e0810161184a604083018861180c565b8560608301528460808301528360a08301528260c083015298975050505050505050565b6020808252600990820152681499595b9d1c985b9d60ba1b604082015260600190565b5f5f5f606084860312156118a3575f5ffd5b835160ff811681146118b3575f5ffd5b6020850151604086015191945092506118cb81611634565b809150509250925092565b606081016118e4828661180c565b602082019390935260400152919050565b634e487b7160e01b5f52604160045260245ffd5b5f608082840312801561191a575f5ffd5b506040516080810167ffffffffffffffff8111828210171561193e5761193e6118f5565b6040908152835182526020808501519083015283810151908201526060928301519281019290925250919050565b634e487b7160e01b5f52601160045260245ffd5b808201808211156119935761199361196c565b92915050565b5f600182016119aa576119aa61196c565b5060010190565b5f5f8335601e198436030181126119c6575f5ffd5b83018035915067ffffffffffffffff8211156119e0575f5ffd5b6020019150368190038213156119f4575f5ffd5b9250929050565b600181811c90821680611a0f57607f821691505b602082108103611a2d57634e487b7160e01b5f52602260045260245ffd5b50919050565b601f8211156114c557805f5260205f20601f840160051c81016020851015611a585750805b601f840160051c820191505b81811015611a77575f8155600101611a64565b5050505050565b67ffffffffffffffff831115611a9657611a966118f5565b611aaa83611aa483546119fb565b83611a33565b5f601f841160018114611adb575f8515611ac45750838201355b5f19600387901b1c1916600186901b178355611a77565b5f83815260208120601f198716915b82811015611b0a5786850135825560209485019460019092019101611aea565b5086821015611b26575f1960f88860031b161c19848701351681555b505060018560011b0183555050505050565b5f813561199381611663565b80546001600160a01b0319166001600160a01b0392909216919091179055565b5f813561199381611634565b611b7a82836119b1565b67ffffffffffffffff811115611b9257611b926118f5565b611ba681611ba085546119fb565b85611a33565b5f601f821160018114611bd7575f8315611bc05750838201355b5f19600385901b1c1916600184901b178555611c2e565b5f85815260208120601f198516915b82811015611c065786850135825560209485019460019092019101611be6565b5084821015611c22575f1960f88660031b161c19848701351681555b505060018360011b0185555b50505050611c3f60208301836119b1565b611c4d818360018601611a7e565b50506040820135600282015560608201356003820155611c7b611c7260808401611b38565b60048301611b44565b60058101611c94611c8e60a08501611b38565b82611b44565b6114c5611ca360c08501611b64565b82805460ff60a01b191691151560a01b60ff60a01b16919091179055565b60208152816020820152818360408301375f818301604090810191909152601f909201601f19160101919050565b5f60208284031215611cff575f5ffd5b505191905056fea2646970667358221220a25e89de12aaf2e3de90942e7460722f96e0488d72e4a276de76ca3aa3d023d564736f6c634300081f0033",
			"opcodes": "PUSH1 0x80 PUSH1 0x40 MSTORE PUSH1 0x1 DUP1 SSTORE PUSH2 0x1F4 PUSH1 0x5 SSTORE PUSH1 0x64 PUSH1 0x6 SSTORE PUSH7 0x38D7EA4C68000 PUSH1 0x7 SSTORE CALLVALUE DUP1 ISZERO PUSH2 0x29 JUMPI PUSH0 PUSH0 REVERT JUMPDEST POP PUSH1 0x40 MLOAD PUSH2 0x1E9C CODESIZE SUB DUP1 PUSH2 0x1E9C DUP4 CODECOPY DUP2 ADD PUSH1 0x40 DUP2 SWAP1 MSTORE PUSH2 0x48 SWAP2 PUSH2 0x122 JUMP JUMPDEST CALLER DUP1 PUSH2 0x6D JUMPI PUSH1 0x40 MLOAD PUSH4 0x1E4FBDF7 PUSH1 0xE0 SHL DUP2 MSTORE PUSH0 PUSH1 0x4 DUP3 ADD MSTORE PUSH1 0x24 ADD PUSH1 0x40 MLOAD DUP1 SWAP2 SUB SWAP1 REVERT JUMPDEST PUSH2 0x76 DUP2 PUSH2 0xB8 JUMP JUMPDEST POP PUSH1 0x2 DUP1 SLOAD PUSH1 0x1 PUSH1 0x1 PUSH1 0xA0 SHL SUB SWAP4 DUP5 AND PUSH1 0x1 PUSH1 0x1 PUSH1 0xA0 SHL SUB NOT SWAP2 DUP3 AND OR SWAP1 SWAP2 SSTORE PUSH1 0x3 DUP1 SLOAD SWAP3 SWAP1 SWAP4 AND SWAP2 DUP2 AND SWAP2 SWAP1 SWAP2 OR SWAP1 SWAP2 SSTORE PUSH1 0x8 DUP1 SLOAD SWAP1 SWAP2 AND CALLER OR SWAP1 SSTORE PUSH2 0x153 JUMP JUMPDEST PUSH0 DUP1 SLOAD PUSH1 0x1 PUSH1 0x1 PUSH1 0xA0 SHL SUB DUP4 DUP2 AND PUSH1 0x1 PUSH1 0x1 PUSH1 0xA0 SHL SUB NOT DUP4 AND DUP2 OR DUP5 SSTORE PUSH1 0x40 MLOAD SWAP2 SWAP1 SWAP3 AND SWAP3 DUP4 SWAP2 PUSH32 0x8BE0079C531659141344CD1FD0A4F28419497F9722A3DAAFE3B4186F6B6457E0 SWAP2 SWAP1 LOG3 POP POP JUMP JUMPDEST DUP1 MLOAD PUSH1 0x1 PUSH1 0x1 PUSH1 0xA0 SHL SUB DUP2 AND DUP2 EQ PUSH2 0x11D JUMPI PUSH0 PUSH0 REVERT JUMPDEST SWAP2 SWAP1 POP JUMP JUMPDEST PUSH0 PUSH0 PUSH1 0x40 DUP4 DUP6 SUB SLT ISZERO PUSH2 0x133 JUMPI PUSH0 PUSH0 REVERT JUMPDEST PUSH2 0x13C DUP4 PUSH2 0x107 JUMP JUMPDEST SWAP2 POP PUSH2 0x14A PUSH1 0x20 DUP5 ADD PUSH2 0x107 JUMP JUMPDEST SWAP1 POP SWAP3 POP SWAP3 SWAP1 POP JUMP JUMPDEST PUSH2 0x1D3C DUP1 PUSH2 0x160 PUSH0 CODECOPY PUSH0 RETURN INVALID PUSH1 0x80 PUSH1 0x40 MSTORE PUSH1 0x4 CALLDATASIZE LT PUSH2 0x198 JUMPI PUSH0 CALLDATALOAD PUSH1 0xE0 SHR DUP1 PUSH4 0x8DA5CB5B GT PUSH2 0xE7 JUMPI DUP1 PUSH4 0xE744092E GT PUSH2 0x87 JUMPI DUP1 PUSH4 0xEEC8138E GT PUSH2 0x62 JUMPI DUP1 PUSH4 0xEEC8138E EQ PUSH2 0x500 JUMPI DUP1 PUSH4 0xF0F44260 EQ PUSH2 0x56E JUMPI DUP1 PUSH4 0xF2FDE38B EQ PUSH2 0x58D JUMPI DUP1 PUSH4 0xFA968EEA EQ PUSH2 0x5AC JUMPI PUSH0 PUSH0 REVERT JUMPDEST DUP1 PUSH4 0xE744092E EQ PUSH2 0x4A8 JUMPI DUP1 PUSH4 0xE859E56C EQ PUSH2 0x4D6 JUMPI DUP1 PUSH4 0xEC979082 EQ PUSH2 0x4EB JUMPI PUSH0 PUSH0 REVERT JUMPDEST DUP1 PUSH4 0xB187BD26 GT PUSH2 0xC2 JUMPI DUP1 PUSH4 0xB187BD26 EQ PUSH2 0x414 JUMPI DUP1 PUSH4 0xC1DE1343 EQ PUSH2 0x444 JUMPI DUP1 PUSH4 0xE4CFCC23 EQ PUSH2 0x457 JUMPI DUP1 PUSH4 0xE50E64D5 EQ PUSH2 0x489 JUMPI PUSH0 PUSH0 REVERT JUMPDEST DUP1 PUSH4 0x8DA5CB5B EQ PUSH2 0x3BA JUMPI DUP1 PUSH4 0x913B2DBA EQ PUSH2 0x3D6 JUMPI DUP1 PUSH4 0xADDF3804 EQ PUSH2 0x3F5 JUMPI PUSH0 PUSH0 REVERT JUMPDEST DUP1 PUSH4 0x5CABBBF8 GT PUSH2 0x152 JUMPI DUP1 PUSH4 0x70E5DEB9 GT PUSH2 0x12D JUMPI DUP1 PUSH4 0x70E5DEB9 EQ PUSH2 0x2DD JUMPI DUP1 PUSH4 0x715018A6 EQ PUSH2 0x2FC JUMPI DUP1 PUSH4 0x7C16CD9E EQ PUSH2 0x310 JUMPI DUP1 PUSH4 0x7D06A8E1 EQ PUSH2 0x32F JUMPI PUSH0 PUSH0 REVERT JUMPDEST DUP1 PUSH4 0x5CABBBF8 EQ PUSH2 0x280 JUMPI DUP1 PUSH4 0x61D027B3 EQ PUSH2 0x29F JUMPI DUP1 PUSH4 0x677BD9FF EQ PUSH2 0x2BE JUMPI PUSH0 PUSH0 REVERT JUMPDEST DUP1 PUSH4 0x4F3BCEC EQ PUSH2 0x1A3 JUMPI DUP1 PUSH4 0x10FBEBF7 EQ PUSH2 0x1DF JUMPI DUP1 PUSH4 0x16C38B3C EQ PUSH2 0x200 JUMPI DUP1 PUSH4 0x1DF4CCFC EQ PUSH2 0x21F JUMPI DUP1 PUSH4 0x4E543B26 EQ PUSH2 0x242 JUMPI DUP1 PUSH4 0x56CAEFB2 EQ PUSH2 0x261 JUMPI PUSH0 PUSH0 REVERT JUMPDEST CALLDATASIZE PUSH2 0x19F JUMPI STOP JUMPDEST PUSH0 PUSH0 REVERT JUMPDEST CALLVALUE DUP1 ISZERO PUSH2 0x1AE JUMPI PUSH0 PUSH0 REVERT JUMPDEST POP PUSH1 0x3 SLOAD PUSH2 0x1C2 SWAP1 PUSH1 0x1 PUSH1 0x1 PUSH1 0xA0 SHL SUB AND DUP2 JUMP JUMPDEST PUSH1 0x40 MLOAD PUSH1 0x1 PUSH1 0x1 PUSH1 0xA0 SHL SUB SWAP1 SWAP2 AND DUP2 MSTORE PUSH1 0x20 ADD JUMPDEST PUSH1 0x40 MLOAD DUP1 SWAP2 SUB SWAP1 RETURN JUMPDEST CALLVALUE DUP1 ISZERO PUSH2 0x1EA JUMPI PUSH0 PUSH0 REVERT JUMPDEST POP PUSH2 0x1FE PUSH2 0x1F9 CALLDATASIZE PUSH1 0x4 PUSH2 0x161D JUMP JUMPDEST PUSH2 0x5C1 JUMP JUMPDEST STOP JUMPDEST CALLVALUE DUP1 ISZERO PUSH2 0x20B JUMPI PUSH0 PUSH0 REVERT JUMPDEST POP PUSH2 0x1FE PUSH2 0x21A CALLDATASIZE PUSH1 0x4 PUSH2 0x1641 JUMP JUMPDEST PUSH2 0x663 JUMP JUMPDEST CALLVALUE DUP1 ISZERO PUSH2 0x22A JUMPI PUSH0 PUSH0 REVERT JUMPDEST POP PUSH2 0x234 PUSH1 0x5 SLOAD DUP2 JUMP JUMPDEST PUSH1 0x40 MLOAD SWAP1 DUP2 MSTORE PUSH1 0x20 ADD PUSH2 0x1D6 JUMP JUMPDEST CALLVALUE DUP1 ISZERO PUSH2 0x24D JUMPI PUSH0 PUSH0 REVERT JUMPDEST POP PUSH2 0x1FE PUSH2 0x25C CALLDATASIZE PUSH1 0x4 PUSH2 0x1677 JUMP JUMPDEST PUSH2 0x689 JUMP JUMPDEST CALLVALUE DUP1 ISZERO PUSH2 0x26C JUMPI PUSH0 PUSH0 REVERT JUMPDEST POP PUSH2 0x1FE PUSH2 0x27B CALLDATASIZE PUSH1 0x4 PUSH2 0x1677 JUMP JUMPDEST PUSH2 0x6B3 JUMP JUMPDEST CALLVALUE DUP1 ISZERO PUSH2 0x28B JUMPI PUSH0 PUSH0 REVERT JUMPDEST POP PUSH2 0x1FE PUSH2 0x29A CALLDATASIZE PUSH1 0x4 PUSH2 0x1692 JUMP JUMPDEST PUSH2 0x6DD JUMP JUMPDEST CALLVALUE DUP1 ISZERO PUSH2 0x2AA JUMPI PUSH0 PUSH0 REVERT JUMPDEST POP PUSH1 0x8 SLOAD PUSH2 0x1C2 SWAP1 PUSH1 0x1 PUSH1 0x1 PUSH1 0xA0 SHL SUB AND DUP2 JUMP JUMPDEST CALLVALUE DUP1 ISZERO PUSH2 0x2C9 JUMPI PUSH0 PUSH0 REVERT JUMPDEST POP PUSH2 0x1FE PUSH2 0x2D8 CALLDATASIZE PUSH1 0x4 PUSH2 0x161D JUMP JUMPDEST PUSH2 0x94C JUMP JUMPDEST CALLVALUE DUP1 ISZERO PUSH2 0x2E8 JUMPI PUSH0 PUSH0 REVERT JUMPDEST POP PUSH2 0x1FE PUSH2 0x2F7 CALLDATASIZE PUSH1 0x4 PUSH2 0x161D JUMP JUMPDEST PUSH2 0xC70 JUMP JUMPDEST CALLVALUE DUP1 ISZERO PUSH2 0x307 JUMPI PUSH0 PUSH0 REVERT JUMPDEST POP PUSH2 0x1FE PUSH2 0xCFB JUMP JUMPDEST CALLVALUE DUP1 ISZERO PUSH2 0x31B JUMPI PUSH0 PUSH0 REVERT JUMPDEST POP PUSH2 0x1FE PUSH2 0x32A CALLDATASIZE PUSH1 0x4 PUSH2 0x161D JUMP JUMPDEST PUSH2 0xD0E JUMP JUMPDEST CALLVALUE DUP1 ISZERO PUSH2 0x33A JUMPI PUSH0 PUSH0 REVERT JUMPDEST POP PUSH2 0x389 PUSH2 0x349 CALLDATASIZE PUSH1 0x4 PUSH2 0x16CE JUMP JUMPDEST PUSH1 0xB PUSH1 0x20 SWAP1 DUP2 MSTORE PUSH0 SWAP3 DUP4 MSTORE PUSH1 0x40 DUP1 DUP5 KECCAK256 SWAP1 SWAP2 MSTORE SWAP1 DUP3 MSTORE SWAP1 KECCAK256 DUP1 SLOAD PUSH1 0x1 DUP3 ADD SLOAD PUSH1 0x2 SWAP1 SWAP3 ADD SLOAD SWAP1 SWAP2 SWAP1 PUSH1 0x1 PUSH1 0x1 PUSH1 0xA0 SHL SUB DUP2 AND SWAP1 PUSH1 0x1 PUSH1 0xA0 SHL SWAP1 DIV PUSH1 0xFF AND DUP5 JUMP JUMPDEST PUSH1 0x40 MLOAD PUSH2 0x1D6 SWAP5 SWAP4 SWAP3 SWAP2 SWAP1 SWAP4 DUP5 MSTORE PUSH1 0x20 DUP5 ADD SWAP3 SWAP1 SWAP3 MSTORE PUSH1 0x1 PUSH1 0x1 PUSH1 0xA0 SHL SUB AND PUSH1 0x40 DUP4 ADD MSTORE ISZERO ISZERO PUSH1 0x60 DUP3 ADD MSTORE PUSH1 0x80 ADD SWAP1 JUMP JUMPDEST CALLVALUE DUP1 ISZERO PUSH2 0x3C5 JUMPI PUSH0 PUSH0 REVERT JUMPDEST POP PUSH0 SLOAD PUSH1 0x1 PUSH1 0x1 PUSH1 0xA0 SHL SUB AND PUSH2 0x1C2 JUMP JUMPDEST CALLVALUE DUP1 ISZERO PUSH2 0x3E1 JUMPI PUSH0 PUSH0 REVERT JUMPDEST POP PUSH2 0x1FE PUSH2 0x3F0 CALLDATASIZE PUSH1 0x4 PUSH2 0x16F1 JUMP JUMPDEST PUSH2 0xD5C JUMP JUMPDEST CALLVALUE DUP1 ISZERO PUSH2 0x400 JUMPI PUSH0 PUSH0 REVERT JUMPDEST POP PUSH1 0x2 SLOAD PUSH2 0x1C2 SWAP1 PUSH1 0x1 PUSH1 0x1 PUSH1 0xA0 SHL SUB AND DUP2 JUMP JUMPDEST CALLVALUE DUP1 ISZERO PUSH2 0x41F JUMPI PUSH0 PUSH0 REVERT JUMPDEST POP PUSH1 0x8 SLOAD PUSH2 0x434 SWAP1 PUSH1 0x1 PUSH1 0xA0 SHL SWAP1 DIV PUSH1 0xFF AND DUP2 JUMP JUMPDEST PUSH1 0x40 MLOAD SWAP1 ISZERO ISZERO DUP2 MSTORE PUSH1 0x20 ADD PUSH2 0x1D6 JUMP JUMPDEST PUSH2 0x1FE PUSH2 0x452 CALLDATASIZE PUSH1 0x4 PUSH2 0x1728 JUMP JUMPDEST PUSH2 0xDFB JUMP JUMPDEST CALLVALUE DUP1 ISZERO PUSH2 0x462 JUMPI PUSH0 PUSH0 REVERT JUMPDEST POP PUSH2 0x476 PUSH2 0x471 CALLDATASIZE PUSH1 0x4 PUSH2 0x161D JUMP JUMPDEST PUSH2 0x10DD JUMP JUMPDEST PUSH1 0x40 MLOAD PUSH2 0x1D6 SWAP8 SWAP7 SWAP6 SWAP5 SWAP4 SWAP3 SWAP2 SWAP1 PUSH2 0x179D JUMP JUMPDEST CALLVALUE DUP1 ISZERO PUSH2 0x494 JUMPI PUSH0 PUSH0 REVERT JUMPDEST POP PUSH2 0x1FE PUSH2 0x4A3 CALLDATASIZE PUSH1 0x4 PUSH2 0x161D JUMP JUMPDEST PUSH2 0x1236 JUMP JUMPDEST CALLVALUE DUP1 ISZERO PUSH2 0x4B3 JUMPI PUSH0 PUSH0 REVERT JUMPDEST POP PUSH2 0x434 PUSH2 0x4C2 CALLDATASIZE PUSH1 0x4 PUSH2 0x1677 JUMP JUMPDEST PUSH1 0xC PUSH1 0x20 MSTORE PUSH0 SWAP1 DUP2 MSTORE PUSH1 0x40 SWAP1 KECCAK256 SLOAD PUSH1 0xFF AND DUP2 JUMP JUMPDEST CALLVALUE DUP1 ISZERO PUSH2 0x4E1 JUMPI PUSH0 PUSH0 REVERT JUMPDEST POP PUSH2 0x234 PUSH1 0x6 SLOAD DUP2 JUMP JUMPDEST CALLVALUE DUP1 ISZERO PUSH2 0x4F6 JUMPI PUSH0 PUSH0 REVERT JUMPDEST POP PUSH2 0x234 PUSH1 0x4 SLOAD DUP2 JUMP JUMPDEST CALLVALUE DUP1 ISZERO PUSH2 0x50B JUMPI PUSH0 PUSH0 REVERT JUMPDEST POP PUSH2 0x55B PUSH2 0x51A CALLDATASIZE PUSH1 0x4 PUSH2 0x161D JUMP JUMPDEST PUSH1 0xA PUSH1 0x20 MSTORE PUSH0 SWAP1 DUP2 MSTORE PUSH1 0x40 SWAP1 KECCAK256 DUP1 SLOAD PUSH1 0x1 DUP3 ADD SLOAD PUSH1 0x2 DUP4 ADD SLOAD PUSH1 0x3 DUP5 ADD SLOAD PUSH1 0x4 SWAP1 SWAP5 ADD SLOAD PUSH1 0xFF DUP1 DUP6 AND SWAP6 PUSH2 0x100 DUP7 DIV DUP3 AND SWAP6 PUSH3 0x10000 SWAP1 DIV SWAP1 SWAP2 AND SWAP4 SWAP3 SWAP2 DUP8 JUMP JUMPDEST PUSH1 0x40 MLOAD PUSH2 0x1D6 SWAP8 SWAP7 SWAP6 SWAP5 SWAP4 SWAP3 SWAP2 SWAP1 PUSH2 0x182C JUMP JUMPDEST CALLVALUE DUP1 ISZERO PUSH2 0x579 JUMPI PUSH0 PUSH0 REVERT JUMPDEST POP PUSH2 0x1FE PUSH2 0x588 CALLDATASIZE PUSH1 0x4 PUSH2 0x1677 JUMP JUMPDEST PUSH2 0x133E JUMP JUMPDEST CALLVALUE DUP1 ISZERO PUSH2 0x598 JUMPI PUSH0 PUSH0 REVERT JUMPDEST POP PUSH2 0x1FE PUSH2 0x5A7 CALLDATASIZE PUSH1 0x4 PUSH2 0x1677 JUMP JUMPDEST PUSH2 0x1368 JUMP JUMPDEST CALLVALUE DUP1 ISZERO PUSH2 0x5B7 JUMPI PUSH0 PUSH0 REVERT JUMPDEST POP PUSH2 0x234 PUSH1 0x7 SLOAD DUP2 JUMP JUMPDEST PUSH1 0x1 SLOAD PUSH1 0x1 EQ PUSH2 0x5EC JUMPI PUSH1 0x40 MLOAD PUSH3 0x461BCD PUSH1 0xE5 SHL DUP2 MSTORE PUSH1 0x4 ADD PUSH2 0x5E3 SWAP1 PUSH2 0x186E JUMP JUMPDEST PUSH1 0x40 MLOAD DUP1 SWAP2 SUB SWAP1 REVERT JUMPDEST PUSH1 0x2 PUSH1 0x1 SSTORE PUSH0 DUP2 DUP2 MSTORE PUSH1 0xA PUSH1 0x20 MSTORE PUSH1 0x40 SWAP1 KECCAK256 DUP1 SLOAD PUSH2 0x100 SWAP1 DIV PUSH1 0xFF AND DUP1 PUSH2 0x62E JUMPI POP PUSH1 0x3 DUP2 SLOAD PUSH3 0x10000 SWAP1 DIV PUSH1 0xFF AND PUSH1 0x3 DUP2 GT ISZERO PUSH2 0x62C JUMPI PUSH2 0x62C PUSH2 0x17F8 JUMP JUMPDEST EQ JUMPDEST PUSH2 0x636 JUMPI PUSH0 PUSH0 REVERT JUMPDEST PUSH0 DUP3 DUP2 MSTORE PUSH1 0x9 PUSH1 0x20 MSTORE PUSH1 0x40 SWAP1 KECCAK256 PUSH1 0x5 ADD SLOAD PUSH2 0x65B SWAP1 DUP4 SWAP1 PUSH1 0x1 PUSH1 0x1 PUSH1 0xA0 SHL SUB AND PUSH2 0x13A5 JUMP JUMPDEST POP POP PUSH1 0x1 DUP1 SSTORE JUMP JUMPDEST PUSH2 0x66B PUSH2 0x141C JUMP JUMPDEST PUSH1 0x8 DUP1 SLOAD SWAP2 ISZERO ISZERO PUSH1 0x1 PUSH1 0xA0 SHL MUL PUSH1 0xFF PUSH1 0xA0 SHL NOT SWAP1 SWAP3 AND SWAP2 SWAP1 SWAP2 OR SWAP1 SSTORE JUMP JUMPDEST PUSH2 0x691 PUSH2 0x141C JUMP JUMPDEST PUSH1 0x3 DUP1 SLOAD PUSH1 0x1 PUSH1 0x1 PUSH1 0xA0 SHL SUB NOT AND PUSH1 0x1 PUSH1 0x1 PUSH1 0xA0 SHL SUB SWAP3 SWAP1 SWAP3 AND SWAP2 SWAP1 SWAP2 OR SWAP1 SSTORE JUMP JUMPDEST PUSH2 0x6BB PUSH2 0x141C JUMP JUMPDEST PUSH1 0x2 DUP1 SLOAD PUSH1 0x1 PUSH1 0x1 PUSH1 0xA0 SHL SUB NOT AND PUSH1 0x1 PUSH1 0x1 PUSH1 0xA0 SHL SUB SWAP3 SWAP1 SWAP3 AND SWAP2 SWAP1 SWAP2 OR SWAP1 SSTORE JUMP JUMPDEST PUSH2 0x6E5 PUSH2 0x141C JUMP JUMPDEST PUSH0 DUP3 DUP2 MSTORE PUSH1 0xA PUSH1 0x20 MSTORE PUSH1 0x40 SWAP1 KECCAK256 DUP1 SLOAD PUSH1 0xFF AND ISZERO PUSH2 0x72F JUMPI PUSH1 0x40 MLOAD PUSH3 0x461BCD PUSH1 0xE5 SHL DUP2 MSTORE PUSH1 0x20 PUSH1 0x4 DUP3 ADD MSTORE PUSH1 0x8 PUSH1 0x24 DUP3 ADD MSTORE PUSH8 0x14995CDBDB1D9959 PUSH1 0xC2 SHL PUSH1 0x44 DUP3 ADD MSTORE PUSH1 0x64 ADD PUSH2 0x5E3 JUMP JUMPDEST PUSH0 DUP4 DUP2 MSTORE PUSH1 0x9 PUSH1 0x20 MSTORE PUSH1 0x40 DUP1 DUP3 KECCAK256 PUSH1 0x3 DUP1 SLOAD PUSH1 0x4 DUP1 DUP5 ADD SLOAD PUSH1 0x2 DUP6 ADD SLOAD SWAP4 DUP6 ADD SLOAD PUSH1 0x5 DUP7 ADD SLOAD SWAP7 MLOAD PUSH4 0xFCE6093D PUSH1 0xE0 SHL DUP2 MSTORE PUSH1 0x1 PUSH1 0x1 PUSH1 0xA0 SHL SUB SWAP3 DUP4 AND SWAP4 DUP2 ADD SWAP4 SWAP1 SWAP4 MSTORE PUSH10 0xFFFFFFFFFFFFFFFFFFFF DUP11 AND PUSH1 0x24 DUP5 ADD MSTORE PUSH1 0x44 DUP4 ADD SWAP5 SWAP1 SWAP5 MSTORE PUSH1 0x64 DUP3 ADD SWAP4 SWAP1 SWAP4 MSTORE PUSH1 0x1 PUSH1 0xA0 SHL SWAP1 SWAP5 DIV PUSH1 0xFF AND ISZERO ISZERO PUSH1 0x84 DUP6 ADD MSTORE SWAP2 SWAP4 SWAP3 DUP4 SWAP3 DUP4 SWAP3 AND SWAP1 PUSH4 0xFCE6093D SWAP1 PUSH1 0xA4 ADD PUSH1 0x60 PUSH1 0x40 MLOAD DUP1 DUP4 SUB DUP2 DUP7 GAS STATICCALL ISZERO DUP1 ISZERO PUSH2 0x7D4 JUMPI RETURNDATASIZE PUSH0 PUSH0 RETURNDATACOPY RETURNDATASIZE PUSH0 REVERT JUMPDEST POP POP POP POP PUSH1 0x40 MLOAD RETURNDATASIZE PUSH1 0x1F NOT PUSH1 0x1F DUP3 ADD AND DUP3 ADD DUP1 PUSH1 0x40 MSTORE POP DUP2 ADD SWAP1 PUSH2 0x7F8 SWAP2 SWAP1 PUSH2 0x1891 JUMP JUMPDEST SWAP3 POP SWAP3 POP SWAP3 POP DUP1 PUSH2 0x83B JUMPI PUSH1 0x40 MLOAD PUSH3 0x461BCD PUSH1 0xE5 SHL DUP2 MSTORE PUSH1 0x20 PUSH1 0x4 DUP3 ADD MSTORE PUSH1 0xD PUSH1 0x24 DUP3 ADD MSTORE PUSH13 0x125B9D985B1A5908149BDD5B99 PUSH1 0x9A SHL PUSH1 0x44 DUP3 ADD MSTORE PUSH1 0x64 ADD PUSH2 0x5E3 JUMP JUMPDEST DUP3 PUSH1 0xFF AND PUSH1 0x2 EQ PUSH2 0x84D JUMPI PUSH1 0x1 PUSH2 0x850 JUMP JUMPDEST PUSH1 0x2 JUMPDEST DUP6 SLOAD DUP7 SWAP1 PUSH3 0xFF0000 NOT AND PUSH3 0x10000 DUP4 PUSH1 0x3 DUP2 GT ISZERO PUSH2 0x870 JUMPI PUSH2 0x870 PUSH2 0x17F8 JUMP JUMPDEST MUL OR SWAP1 SSTORE POP DUP5 SLOAD PUSH1 0xFF NOT AND PUSH1 0x1 OR DUP6 SSTORE PUSH1 0x2 DUP6 SLOAD PUSH3 0x10000 SWAP1 DIV PUSH1 0xFF AND PUSH1 0x3 DUP2 GT ISZERO PUSH2 0x89E JUMPI PUSH2 0x89E PUSH2 0x17F8 JUMP JUMPDEST EQ PUSH2 0x8AD JUMPI DUP5 PUSH1 0x3 ADD SLOAD PUSH2 0x8B3 JUMP JUMPDEST DUP5 PUSH1 0x2 ADD SLOAD JUMPDEST PUSH1 0x4 DUP7 ADD DUP2 SWAP1 SSTORE ISZERO DUP1 ISZERO PUSH2 0x8CA JUMPI POP PUSH0 DUP6 PUSH1 0x1 ADD SLOAD GT JUMPDEST ISZERO PUSH2 0x8F3 JUMPI PUSH1 0x5 DUP5 ADD SLOAD PUSH1 0x8 SLOAD PUSH1 0x1 DUP8 ADD SLOAD PUSH2 0x8F3 SWAP3 PUSH1 0x1 PUSH1 0x1 PUSH1 0xA0 SHL SUB SWAP1 DUP2 AND SWAP3 AND SWAP1 PUSH2 0x1448 JUMP JUMPDEST DUP7 PUSH32 0xCC1BC25C4D52370E9824DCAD12774BE2826BEE7223A1605AB5CA6E6F6899C33E DUP7 PUSH0 ADD PUSH1 0x2 SWAP1 SLOAD SWAP1 PUSH2 0x100 EXP SWAP1 DIV PUSH1 0xFF AND DUP5 DUP9 PUSH1 0x1 ADD SLOAD PUSH1 0x40 MLOAD PUSH2 0x93B SWAP4 SWAP3 SWAP2 SWAP1 PUSH2 0x18D6 JUMP JUMPDEST PUSH1 0x40 MLOAD DUP1 SWAP2 SUB SWAP1 LOG2 POP POP POP POP POP POP POP JUMP JUMPDEST PUSH1 0x1 SLOAD PUSH1 0x1 EQ PUSH2 0x96E JUMPI PUSH1 0x40 MLOAD PUSH3 0x461BCD PUSH1 0xE5 SHL DUP2 MSTORE PUSH1 0x4 ADD PUSH2 0x5E3 SWAP1 PUSH2 0x186E JUMP JUMPDEST PUSH1 0x2 PUSH1 0x1 SSTORE PUSH0 DUP2 DUP2 MSTORE PUSH1 0xA PUSH1 0x20 SWAP1 DUP2 MSTORE PUSH1 0x40 DUP1 DUP4 KECCAK256 PUSH1 0xB DUP4 MSTORE DUP2 DUP5 KECCAK256 CALLER DUP6 MSTORE SWAP1 SWAP3 MSTORE SWAP1 SWAP2 KECCAK256 DUP2 SLOAD PUSH1 0xFF AND DUP1 ISZERO PUSH2 0x9B0 JUMPI POP PUSH1 0x2 DUP2 ADD SLOAD PUSH1 0x1 PUSH1 0xA0 SHL SWAP1 DIV PUSH1 0xFF AND ISZERO JUMPDEST DUP1 ISZERO PUSH2 0x9C3 JUMPI POP DUP2 SLOAD PUSH2 0x100 SWAP1 DIV PUSH1 0xFF AND ISZERO JUMPDEST PUSH2 0x9F9 JUMPI PUSH1 0x40 MLOAD PUSH3 0x461BCD PUSH1 0xE5 SHL DUP2 MSTORE PUSH1 0x20 PUSH1 0x4 DUP3 ADD MSTORE PUSH1 0x7 PUSH1 0x24 DUP3 ADD MSTORE PUSH7 0x125B9D985B1A59 PUSH1 0xCA SHL PUSH1 0x44 DUP3 ADD MSTORE PUSH1 0x64 ADD PUSH2 0x5E3 JUMP JUMPDEST PUSH0 PUSH1 0x2 DUP4 SLOAD PUSH3 0x10000 SWAP1 DIV PUSH1 0xFF AND PUSH1 0x3 DUP2 GT ISZERO PUSH2 0xA18 JUMPI PUSH2 0xA18 PUSH2 0x17F8 JUMP JUMPDEST EQ PUSH2 0xA50 JUMPI PUSH1 0x1 DUP4 SLOAD PUSH3 0x10000 SWAP1 DIV PUSH1 0xFF AND PUSH1 0x3 DUP2 GT ISZERO PUSH2 0xA3B JUMPI PUSH2 0xA3B PUSH2 0x17F8 JUMP JUMPDEST EQ PUSH2 0xA46 JUMPI PUSH0 PUSH2 0xA53 JUMP JUMPDEST DUP2 PUSH1 0x1 ADD SLOAD PUSH2 0xA53 JUMP JUMPDEST DUP2 SLOAD JUMPDEST SWAP1 POP PUSH0 DUP2 GT PUSH2 0xA8D JUMPI PUSH1 0x40 MLOAD PUSH3 0x461BCD PUSH1 0xE5 SHL DUP2 MSTORE PUSH1 0x20 PUSH1 0x4 DUP3 ADD MSTORE PUSH1 0x6 PUSH1 0x24 DUP3 ADD MSTORE PUSH6 0x2737902BB4B7 PUSH1 0xD1 SHL PUSH1 0x44 DUP3 ADD MSTORE PUSH1 0x64 ADD PUSH2 0x5E3 JUMP JUMPDEST PUSH1 0x2 DUP3 DUP2 ADD DUP1 SLOAD PUSH1 0x1 PUSH1 0xA0 SHL PUSH1 0xFF PUSH1 0xA0 SHL NOT DUP3 AND OR SWAP1 SWAP2 SSTORE SWAP1 SLOAD PUSH1 0x1 DUP6 ADD SLOAD PUSH1 0x4 DUP1 DUP8 ADD SLOAD PUSH1 0x5 SLOAD PUSH1 0x6 SLOAD PUSH1 0x40 MLOAD PUSH4 0xC494293B PUSH1 0xE0 SHL DUP2 MSTORE SWAP4 DUP5 ADD DUP9 SWAP1 MSTORE PUSH1 0x24 DUP5 ADD SWAP5 SWAP1 SWAP5 MSTORE PUSH1 0x44 DUP4 ADD SWAP2 SWAP1 SWAP2 MSTORE PUSH1 0x64 DUP3 ADD MSTORE PUSH1 0x84 DUP2 ADD SWAP2 SWAP1 SWAP2 MSTORE PUSH1 0x1 PUSH1 0x1 PUSH1 0xA0 SHL SUB SWAP3 DUP4 AND ISZERO ISZERO PUSH1 0xA4 DUP3 ADD MSTORE PUSH0 SWAP3 SWAP1 SWAP2 AND SWAP1 PUSH4 0xC494293B SWAP1 PUSH1 0xC4 ADD PUSH1 0x80 PUSH1 0x40 MLOAD DUP1 DUP4 SUB DUP2 DUP7 GAS STATICCALL ISZERO DUP1 ISZERO PUSH2 0xB24 JUMPI RETURNDATASIZE PUSH0 PUSH0 RETURNDATACOPY RETURNDATASIZE PUSH0 REVERT JUMPDEST POP POP POP POP PUSH1 0x40 MLOAD RETURNDATASIZE PUSH1 0x1F NOT PUSH1 0x1F DUP3 ADD AND DUP3 ADD DUP1 PUSH1 0x40 MSTORE POP DUP2 ADD SWAP1 PUSH2 0xB48 SWAP2 SWAP1 PUSH2 0x1909 JUMP JUMPDEST PUSH0 DUP7 DUP2 MSTORE PUSH1 0x9 PUSH1 0x20 MSTORE PUSH1 0x40 SWAP1 KECCAK256 PUSH1 0x5 ADD SLOAD DUP2 MLOAD SWAP2 SWAP3 POP PUSH1 0x1 PUSH1 0x1 PUSH1 0xA0 SHL SUB AND SWAP1 PUSH2 0xB75 SWAP1 DUP3 SWAP1 CALLER SWAP1 PUSH2 0x1448 JUMP JUMPDEST PUSH1 0x20 DUP3 ADD MLOAD ISZERO PUSH2 0xC21 JUMPI PUSH1 0x8 SLOAD PUSH1 0x40 DUP4 ADD MLOAD PUSH2 0xB9E SWAP2 DUP4 SWAP2 PUSH1 0x1 PUSH1 0x1 PUSH1 0xA0 SHL SUB SWAP1 SWAP2 AND SWAP1 PUSH2 0x1448 JUMP JUMPDEST PUSH1 0x60 DUP3 ADD MLOAD ISZERO PUSH2 0xBC9 JUMPI PUSH1 0x2 DUP5 ADD SLOAD PUSH1 0x60 DUP4 ADD MLOAD PUSH2 0xBC9 SWAP2 DUP4 SWAP2 PUSH1 0x1 PUSH1 0x1 PUSH1 0xA0 SHL SUB SWAP1 SWAP2 AND SWAP1 PUSH2 0x1448 JUMP JUMPDEST PUSH1 0x40 DUP3 DUP2 ADD MLOAD PUSH1 0x60 DUP1 DUP6 ADD MLOAD PUSH1 0x2 DUP9 ADD SLOAD DUP5 MLOAD SWAP4 DUP5 MSTORE PUSH1 0x20 DUP5 ADD SWAP2 SWAP1 SWAP2 MSTORE PUSH1 0x1 PUSH1 0x1 PUSH1 0xA0 SHL SUB AND DUP3 DUP5 ADD MSTORE SWAP2 MLOAD DUP9 SWAP3 PUSH32 0xA9BF971E981640800491C99D4D27D2FDAEFC93AD9F7011472259ABDF8C6BA1E SWAP3 DUP3 SWAP1 SUB ADD SWAP1 LOG2 JUMPDEST DUP2 MLOAD PUSH1 0x20 DUP1 DUP5 ADD MLOAD PUSH1 0x40 DUP1 MLOAD SWAP4 DUP5 MSTORE SWAP2 DUP4 ADD MSTORE CALLER SWAP2 DUP9 SWAP2 PUSH32 0x6256309DC4C6375473B26B31FC0E88B0CA9EBCA0E558D39FEC5AA96863AD40CB SWAP2 ADD JUMPDEST PUSH1 0x40 MLOAD DUP1 SWAP2 SUB SWAP1 LOG3 POP POP PUSH1 0x1 DUP1 SSTORE POP POP POP POP JUMP JUMPDEST PUSH1 0x1 SLOAD PUSH1 0x1 EQ PUSH2 0xC92 JUMPI PUSH1 0x40 MLOAD PUSH3 0x461BCD PUSH1 0xE5 SHL DUP2 MSTORE PUSH1 0x4 ADD PUSH2 0x5E3 SWAP1 PUSH2 0x186E JUMP JUMPDEST PUSH1 0x2 PUSH1 0x1 SSTORE PUSH0 DUP2 DUP2 MSTORE PUSH1 0xA PUSH1 0x20 SWAP1 DUP2 MSTORE PUSH1 0x40 DUP1 DUP4 KECCAK256 PUSH1 0x9 SWAP1 SWAP3 MSTORE SWAP1 SWAP2 KECCAK256 DUP2 SLOAD PUSH1 0xFF AND ISZERO DUP1 ISZERO PUSH2 0xCD1 JUMPI POP PUSH1 0x2 DUP2 ADD SLOAD PUSH2 0xCCE SWAP1 PUSH3 0x3F480 PUSH2 0x1980 JUMP JUMPDEST TIMESTAMP GT JUMPDEST PUSH2 0xCD9 JUMPI PUSH0 PUSH0 REVERT JUMPDEST PUSH1 0x5 DUP2 ADD SLOAD PUSH2 0xCF2 SWAP1 DUP5 SWAP1 PUSH1 0x1 PUSH1 0x1 PUSH1 0xA0 SHL SUB AND PUSH2 0x13A5 JUMP JUMPDEST POP POP PUSH1 0x1 DUP1 SSTORE POP JUMP JUMPDEST PUSH2 0xD03 PUSH2 0x141C JUMP JUMPDEST PUSH2 0xD0C PUSH0 PUSH2 0x14CA JUMP JUMPDEST JUMP JUMPDEST PUSH2 0xD16 PUSH2 0x141C JUMP JUMPDEST PUSH0 DUP2 DUP2 MSTORE PUSH1 0xA PUSH1 0x20 MSTORE PUSH1 0x40 DUP1 DUP3 KECCAK256 DUP1 SLOAD PUSH3 0xFFFFFF NOT AND PUSH3 0x30101 OR SWAP1 SSTORE MLOAD DUP3 SWAP2 PUSH32 0x2CA440FB7FCA85D7F55D395A4ABD94817330B83A62F3502EFBB4770144E4CA97 SWAP2 LOG2 POP JUMP JUMPDEST PUSH2 0xD64 PUSH2 0x141C JUMP JUMPDEST PUSH1 0x4 DUP1 SLOAD SWAP1 PUSH0 PUSH2 0xD73 DUP4 PUSH2 0x1999 JUMP JUMPDEST SWAP1 SWAP2 SSTORE POP POP PUSH1 0x4 SLOAD PUSH0 SWAP1 DUP2 MSTORE PUSH1 0x9 PUSH1 0x20 MSTORE PUSH1 0x40 SWAP1 KECCAK256 DUP2 SWAP1 PUSH2 0xD94 DUP3 DUP3 PUSH2 0x1B70 JUMP JUMPDEST POP PUSH2 0xDA7 SWAP1 POP PUSH1 0xC0 DUP3 ADD PUSH1 0xA0 DUP4 ADD PUSH2 0x1677 JUMP JUMPDEST PUSH1 0x4 SLOAD PUSH1 0x1 PUSH1 0x1 PUSH1 0xA0 SHL SUB SWAP2 SWAP1 SWAP2 AND SWAP1 PUSH32 0x6BFE994AA671108BC4FCB31C2A97AB16DDB967720121010032B2E834BF5EACF6 PUSH2 0xDE2 DUP5 DUP1 PUSH2 0x19B1 JUMP JUMPDEST PUSH1 0x40 MLOAD PUSH2 0xDF0 SWAP3 SWAP2 SWAP1 PUSH2 0x1CC1 JUMP JUMPDEST PUSH1 0x40 MLOAD DUP1 SWAP2 SUB SWAP1 LOG3 POP JUMP JUMPDEST PUSH1 0x1 SLOAD PUSH1 0x1 EQ PUSH2 0xE1D JUMPI PUSH1 0x40 MLOAD PUSH3 0x461BCD PUSH1 0xE5 SHL DUP2 MSTORE PUSH1 0x4 ADD PUSH2 0x5E3 SWAP1 PUSH2 0x186E JUMP JUMPDEST PUSH1 0x2 PUSH1 0x1 SSTORE PUSH1 0x8 SLOAD PUSH1 0x1 PUSH1 0xA0 SHL SWAP1 DIV PUSH1 0xFF AND ISZERO PUSH2 0xE65 JUMPI PUSH1 0x40 MLOAD PUSH3 0x461BCD PUSH1 0xE5 SHL DUP2 MSTORE PUSH1 0x20 PUSH1 0x4 DUP3 ADD MSTORE PUSH1 0x6 PUSH1 0x24 DUP3 ADD MSTORE PUSH6 0x14185D5CD959 PUSH1 0xD2 SHL PUSH1 0x44 DUP3 ADD MSTORE PUSH1 0x64 ADD PUSH2 0x5E3 JUMP JUMPDEST PUSH0 DUP5 DUP2 MSTORE PUSH1 0xA PUSH1 0x20 SWAP1 DUP2 MSTORE PUSH1 0x40 DUP1 DUP4 KECCAK256 PUSH1 0x9 SWAP1 SWAP3 MSTORE SWAP1 SWAP2 KECCAK256 DUP2 SLOAD PUSH1 0xFF AND ISZERO DUP1 ISZERO PUSH2 0xE96 JUMPI POP DUP2 SLOAD PUSH2 0x100 SWAP1 DIV PUSH1 0xFF AND ISZERO JUMPDEST DUP1 ISZERO PUSH2 0xEA5 JUMPI POP DUP1 PUSH1 0x2 ADD SLOAD TIMESTAMP LT JUMPDEST PUSH2 0xEDB JUMPI PUSH1 0x40 MLOAD PUSH3 0x461BCD PUSH1 0xE5 SHL DUP2 MSTORE PUSH1 0x20 PUSH1 0x4 DUP3 ADD MSTORE PUSH1 0x7 PUSH1 0x24 DUP3 ADD MSTORE PUSH7 0x125B9D985B1A59 PUSH1 0xCA SHL PUSH1 0x44 DUP3 ADD MSTORE PUSH1 0x64 ADD PUSH2 0x5E3 JUMP JUMPDEST PUSH1 0x7 SLOAD DUP5 LT ISZERO PUSH2 0xF17 JUMPI PUSH1 0x40 MLOAD PUSH3 0x461BCD PUSH1 0xE5 SHL DUP2 MSTORE PUSH1 0x20 PUSH1 0x4 DUP3 ADD MSTORE PUSH1 0x7 PUSH1 0x24 DUP3 ADD MSTORE PUSH7 0x131BDDC810995D PUSH1 0xCA SHL PUSH1 0x44 DUP3 ADD MSTORE PUSH1 0x64 ADD PUSH2 0x5E3 JUMP JUMPDEST PUSH1 0x5 DUP2 ADD SLOAD PUSH1 0x1 PUSH1 0x1 PUSH1 0xA0 SHL SUB AND PUSH2 0xF68 JUMPI DUP4 CALLVALUE EQ PUSH2 0xF63 JUMPI PUSH1 0x40 MLOAD PUSH3 0x461BCD PUSH1 0xE5 SHL DUP2 MSTORE PUSH1 0x20 PUSH1 0x4 DUP3 ADD MSTORE PUSH1 0x8 PUSH1 0x24 DUP3 ADD MSTORE PUSH8 0x1155120811985A5B PUSH1 0xC2 SHL PUSH1 0x44 DUP3 ADD MSTORE PUSH1 0x64 ADD PUSH2 0x5E3 JUMP JUMPDEST PUSH2 0xF82 JUMP JUMPDEST PUSH1 0x5 DUP2 ADD SLOAD PUSH2 0xF82 SWAP1 PUSH1 0x1 PUSH1 0x1 PUSH1 0xA0 SHL SUB AND CALLER ADDRESS DUP8 PUSH2 0x1519 JUMP JUMPDEST POP POP PUSH0 DUP5 DUP2 MSTORE PUSH1 0xB PUSH1 0x20 SWAP1 DUP2 MSTORE PUSH1 0x40 DUP1 DUP4 KECCAK256 CALLER DUP5 MSTORE SWAP1 SWAP2 MSTORE SWAP1 KECCAK256 PUSH1 0x2 DUP2 ADD SLOAD PUSH1 0x1 PUSH1 0x1 PUSH1 0xA0 SHL SUB AND ISZERO DUP1 ISZERO PUSH2 0xFBF JUMPI POP PUSH1 0x1 PUSH1 0x1 PUSH1 0xA0 SHL SUB DUP3 AND ISZERO ISZERO JUMPDEST DUP1 ISZERO PUSH2 0xFD4 JUMPI POP PUSH1 0x1 PUSH1 0x1 PUSH1 0xA0 SHL SUB DUP3 AND CALLER EQ ISZERO JUMPDEST ISZERO PUSH2 0xFF7 JUMPI PUSH1 0x2 DUP2 ADD DUP1 SLOAD PUSH1 0x1 PUSH1 0x1 PUSH1 0xA0 SHL SUB NOT AND PUSH1 0x1 PUSH1 0x1 PUSH1 0xA0 SHL SUB DUP5 AND OR SWAP1 SSTORE JUMPDEST PUSH0 DUP6 DUP2 MSTORE PUSH1 0xA PUSH1 0x20 MSTORE PUSH1 0x40 SWAP1 KECCAK256 DUP5 ISZERO PUSH2 0x1041 JUMPI DUP4 DUP3 PUSH0 ADD PUSH0 DUP3 DUP3 SLOAD PUSH2 0x101C SWAP2 SWAP1 PUSH2 0x1980 JUMP JUMPDEST SWAP3 POP POP DUP2 SWAP1 SSTORE POP DUP4 DUP2 PUSH1 0x2 ADD PUSH0 DUP3 DUP3 SLOAD PUSH2 0x1036 SWAP2 SWAP1 PUSH2 0x1980 JUMP JUMPDEST SWAP1 SWAP2 SSTORE POP PUSH2 0x1074 SWAP1 POP JUMP JUMPDEST DUP4 DUP3 PUSH1 0x1 ADD PUSH0 DUP3 DUP3 SLOAD PUSH2 0x1054 SWAP2 SWAP1 PUSH2 0x1980 JUMP JUMPDEST SWAP3 POP POP DUP2 SWAP1 SSTORE POP DUP4 DUP2 PUSH1 0x3 ADD PUSH0 DUP3 DUP3 SLOAD PUSH2 0x106E SWAP2 SWAP1 PUSH2 0x1980 JUMP JUMPDEST SWAP1 SWAP2 SSTORE POP POP JUMPDEST DUP4 DUP2 PUSH1 0x1 ADD PUSH0 DUP3 DUP3 SLOAD PUSH2 0x1087 SWAP2 SWAP1 PUSH2 0x1980 JUMP JUMPDEST SWAP1 SWAP2 SSTORE POP POP PUSH1 0x2 DUP3 ADD SLOAD PUSH1 0x40 DUP1 MLOAD DUP7 DUP2 MSTORE DUP8 ISZERO ISZERO PUSH1 0x20 DUP3 ADD MSTORE PUSH1 0x1 PUSH1 0x1 PUSH1 0xA0 SHL SUB SWAP1 SWAP3 AND SWAP1 DUP3 ADD MSTORE CALLER SWAP1 DUP8 SWAP1 PUSH32 0x1F6E85C010A3003B061F788065FDDD4A159E8FAE2662BA5AFE75F5583C89B65B SWAP1 PUSH1 0x60 ADD PUSH2 0xC5C JUMP JUMPDEST PUSH1 0x9 PUSH1 0x20 MSTORE PUSH0 SWAP1 DUP2 MSTORE PUSH1 0x40 SWAP1 KECCAK256 DUP1 SLOAD DUP2 SWAP1 PUSH2 0x10F7 SWAP1 PUSH2 0x19FB JUMP JUMPDEST DUP1 PUSH1 0x1F ADD PUSH1 0x20 DUP1 SWAP2 DIV MUL PUSH1 0x20 ADD PUSH1 0x40 MLOAD SWAP1 DUP2 ADD PUSH1 0x40 MSTORE DUP1 SWAP3 SWAP2 SWAP1 DUP2 DUP2 MSTORE PUSH1 0x20 ADD DUP3 DUP1 SLOAD PUSH2 0x1123 SWAP1 PUSH2 0x19FB JUMP JUMPDEST DUP1 ISZERO PUSH2 0x116E JUMPI DUP1 PUSH1 0x1F LT PUSH2 0x1145 JUMPI PUSH2 0x100 DUP1 DUP4 SLOAD DIV MUL DUP4 MSTORE SWAP2 PUSH1 0x20 ADD SWAP2 PUSH2 0x116E JUMP JUMPDEST DUP3 ADD SWAP2 SWAP1 PUSH0 MSTORE PUSH1 0x20 PUSH0 KECCAK256 SWAP1 JUMPDEST DUP2 SLOAD DUP2 MSTORE SWAP1 PUSH1 0x1 ADD SWAP1 PUSH1 0x20 ADD DUP1 DUP4 GT PUSH2 0x1151 JUMPI DUP3 SWAP1 SUB PUSH1 0x1F AND DUP3 ADD SWAP2 JUMPDEST POP POP POP POP POP SWAP1 DUP1 PUSH1 0x1 ADD DUP1 SLOAD PUSH2 0x1183 SWAP1 PUSH2 0x19FB JUMP JUMPDEST DUP1 PUSH1 0x1F ADD PUSH1 0x20 DUP1 SWAP2 DIV MUL PUSH1 0x20 ADD PUSH1 0x40 MLOAD SWAP1 DUP2 ADD PUSH1 0x40 MSTORE DUP1 SWAP3 SWAP2 SWAP1 DUP2 DUP2 MSTORE PUSH1 0x20 ADD DUP3 DUP1 SLOAD PUSH2 0x11AF SWAP1 PUSH2 0x19FB JUMP JUMPDEST DUP1 ISZERO PUSH2 0x11FA JUMPI DUP1 PUSH1 0x1F LT PUSH2 0x11D1 JUMPI PUSH2 0x100 DUP1 DUP4 SLOAD DIV MUL DUP4 MSTORE SWAP2 PUSH1 0x20 ADD SWAP2 PUSH2 0x11FA JUMP JUMPDEST DUP3 ADD SWAP2 SWAP1 PUSH0 MSTORE PUSH1 0x20 PUSH0 KECCAK256 SWAP1 JUMPDEST DUP2 SLOAD DUP2 MSTORE SWAP1 PUSH1 0x1 ADD SWAP1 PUSH1 0x20 ADD DUP1 DUP4 GT PUSH2 0x11DD JUMPI DUP3 SWAP1 SUB PUSH1 0x1F AND DUP3 ADD SWAP2 JUMPDEST POP POP POP POP PUSH1 0x2 DUP4 ADD SLOAD PUSH1 0x3 DUP5 ADD SLOAD PUSH1 0x4 DUP6 ADD SLOAD PUSH1 0x5 SWAP1 SWAP6 ADD SLOAD SWAP4 SWAP5 SWAP2 SWAP4 SWAP1 SWAP3 POP PUSH1 0x1 PUSH1 0x1 PUSH1 0xA0 SHL SUB SWAP2 DUP3 AND SWAP2 DUP2 AND SWAP1 PUSH1 0x1 PUSH1 0xA0 SHL SWAP1 DIV PUSH1 0xFF AND DUP8 JUMP JUMPDEST PUSH2 0x123E PUSH2 0x141C JUMP JUMPDEST PUSH0 DUP2 DUP2 MSTORE PUSH1 0xA PUSH1 0x20 MSTORE PUSH1 0x40 SWAP1 KECCAK256 SLOAD PUSH1 0xFF AND DUP1 ISZERO PUSH2 0x1278 JUMPI POP PUSH0 DUP2 DUP2 MSTORE PUSH1 0x9 PUSH1 0x20 MSTORE PUSH1 0x40 SWAP1 KECCAK256 PUSH1 0x2 ADD SLOAD PUSH2 0x1275 SWAP1 PUSH4 0x1E13380 PUSH2 0x1980 JUMP JUMPDEST TIMESTAMP GT JUMPDEST PUSH2 0x1280 JUMPI PUSH0 PUSH0 REVERT JUMPDEST PUSH0 DUP2 DUP2 MSTORE PUSH1 0x9 PUSH1 0x20 MSTORE PUSH1 0x40 SWAP1 KECCAK256 PUSH1 0x5 ADD SLOAD PUSH1 0x1 PUSH1 0x1 PUSH1 0xA0 SHL SUB AND DUP1 PUSH2 0x12BB JUMPI PUSH1 0x8 SLOAD PUSH2 0x12B7 SWAP1 PUSH0 SWAP1 PUSH1 0x1 PUSH1 0x1 PUSH1 0xA0 SHL SUB AND SELFBALANCE PUSH2 0x1448 JUMP JUMPDEST POP POP JUMP JUMPDEST PUSH1 0x8 SLOAD PUSH1 0x40 MLOAD PUSH4 0x70A08231 PUSH1 0xE0 SHL DUP2 MSTORE ADDRESS PUSH1 0x4 DUP3 ADD MSTORE PUSH2 0x12B7 SWAP2 PUSH1 0x1 PUSH1 0x1 PUSH1 0xA0 SHL SUB SWAP1 DUP2 AND SWAP2 SWAP1 DUP5 AND SWAP1 PUSH4 0x70A08231 SWAP1 PUSH1 0x24 ADD PUSH1 0x20 PUSH1 0x40 MLOAD DUP1 DUP4 SUB DUP2 DUP7 GAS STATICCALL ISZERO DUP1 ISZERO PUSH2 0x1309 JUMPI RETURNDATASIZE PUSH0 PUSH0 RETURNDATACOPY RETURNDATASIZE PUSH0 REVERT JUMPDEST POP POP POP POP PUSH1 0x40 MLOAD RETURNDATASIZE PUSH1 0x1F NOT PUSH1 0x1F DUP3 ADD AND DUP3 ADD DUP1 PUSH1 0x40 MSTORE POP DUP2 ADD SWAP1 PUSH2 0x132D SWAP2 SWAP1 PUSH2 0x1CEF JUMP JUMPDEST PUSH1 0x1 PUSH1 0x1 PUSH1 0xA0 SHL SUB DUP5 AND SWAP2 SWAP1 PUSH2 0x1580 JUMP JUMPDEST PUSH2 0x1346 PUSH2 0x141C JUMP JUMPDEST PUSH1 0x8 DUP1 SLOAD PUSH1 0x1 PUSH1 0x1 PUSH1 0xA0 SHL SUB NOT AND PUSH1 0x1 PUSH1 0x1 PUSH1 0xA0 SHL SUB SWAP3 SWAP1 SWAP3 AND SWAP2 SWAP1 SWAP2 OR SWAP1 SSTORE JUMP JUMPDEST PUSH2 0x1370 PUSH2 0x141C JUMP JUMPDEST PUSH1 0x1 PUSH1 0x1 PUSH1 0xA0 SHL SUB DUP2 AND PUSH2 0x1399 JUMPI PUSH1 0x40 MLOAD PUSH4 0x1E4FBDF7 PUSH1 0xE0 SHL DUP2 MSTORE PUSH0 PUSH1 0x4 DUP3 ADD MSTORE PUSH1 0x24 ADD PUSH2 0x5E3 JUMP JUMPDEST PUSH2 0x13A2 DUP2 PUSH2 0x14CA JUMP JUMPDEST POP JUMP JUMPDEST PUSH0 DUP3 DUP2 MSTORE PUSH1 0xB PUSH1 0x20 SWAP1 DUP2 MSTORE PUSH1 0x40 DUP1 DUP4 KECCAK256 CALLER DUP5 MSTORE SWAP1 SWAP2 MSTORE DUP2 KECCAK256 PUSH1 0x1 DUP2 ADD SLOAD DUP2 SLOAD SWAP2 SWAP3 SWAP2 PUSH2 0x13D1 SWAP2 SWAP1 PUSH2 0x1980 JUMP JUMPDEST SWAP1 POP PUSH0 DUP2 GT DUP1 ISZERO PUSH2 0x13EE JUMPI POP PUSH1 0x2 DUP3 ADD SLOAD PUSH1 0x1 PUSH1 0xA0 SHL SWAP1 DIV PUSH1 0xFF AND ISZERO JUMPDEST PUSH2 0x13F6 JUMPI PUSH0 PUSH0 REVERT JUMPDEST PUSH1 0x2 DUP3 ADD DUP1 SLOAD PUSH1 0xFF PUSH1 0xA0 SHL NOT AND PUSH1 0x1 PUSH1 0xA0 SHL OR SWAP1 SSTORE PUSH2 0x1416 DUP4 CALLER DUP4 PUSH2 0x1448 JUMP JUMPDEST POP POP POP POP JUMP JUMPDEST PUSH0 SLOAD PUSH1 0x1 PUSH1 0x1 PUSH1 0xA0 SHL SUB AND CALLER EQ PUSH2 0xD0C JUMPI PUSH1 0x40 MLOAD PUSH4 0x118CDAA7 PUSH1 0xE0 SHL DUP2 MSTORE CALLER PUSH1 0x4 DUP3 ADD MSTORE PUSH1 0x24 ADD PUSH2 0x5E3 JUMP JUMPDEST PUSH1 0x1 PUSH1 0x1 PUSH1 0xA0 SHL SUB DUP4 AND PUSH2 0x14B1 JUMPI PUSH0 DUP3 PUSH1 0x1 PUSH1 0x1 PUSH1 0xA0 SHL SUB AND DUP3 PUSH1 0x40 MLOAD PUSH0 PUSH1 0x40 MLOAD DUP1 DUP4 SUB DUP2 DUP6 DUP8 GAS CALL SWAP3 POP POP POP RETURNDATASIZE DUP1 PUSH0 DUP2 EQ PUSH2 0x149F JUMPI PUSH1 0x40 MLOAD SWAP2 POP PUSH1 0x1F NOT PUSH1 0x3F RETURNDATASIZE ADD AND DUP3 ADD PUSH1 0x40 MSTORE RETURNDATASIZE DUP3 MSTORE RETURNDATASIZE PUSH0 PUSH1 0x20 DUP5 ADD RETURNDATACOPY PUSH2 0x14A4 JUMP JUMPDEST PUSH1 0x60 SWAP2 POP JUMPDEST POP POP SWAP1 POP DUP1 PUSH2 0x1416 JUMPI PUSH0 PUSH0 REVERT JUMPDEST PUSH2 0x14C5 PUSH1 0x1 PUSH1 0x1 PUSH1 0xA0 SHL SUB DUP5 AND DUP4 DUP4 PUSH2 0x1580 JUMP JUMPDEST POP POP POP JUMP JUMPDEST PUSH0 DUP1 SLOAD PUSH1 0x1 PUSH1 0x1 PUSH1 0xA0 SHL SUB DUP4 DUP2 AND PUSH1 0x1 PUSH1 0x1 PUSH1 0xA0 SHL SUB NOT DUP4 AND DUP2 OR DUP5 SSTORE PUSH1 0x40 MLOAD SWAP2 SWAP1 SWAP3 AND SWAP3 DUP4 SWAP2 PUSH32 0x8BE0079C531659141344CD1FD0A4F28419497F9722A3DAAFE3B4186F6B6457E0 SWAP2 SWAP1 LOG3 POP POP JUMP JUMPDEST PUSH1 0x40 MLOAD PUSH1 0x1 PUSH1 0x1 PUSH1 0xA0 SHL SUB DUP5 DUP2 AND PUSH1 0x24 DUP4 ADD MSTORE DUP4 DUP2 AND PUSH1 0x44 DUP4 ADD MSTORE PUSH1 0x64 DUP3 ADD DUP4 SWAP1 MSTORE PUSH2 0x1416 SWAP2 DUP7 SWAP2 DUP3 AND SWAP1 PUSH4 0x23B872DD SWAP1 PUSH1 0x84 ADD JUMPDEST PUSH1 0x40 MLOAD PUSH1 0x20 DUP2 DUP4 SUB SUB DUP2 MSTORE SWAP1 PUSH1 0x40 MSTORE SWAP2 POP PUSH1 0xE0 SHL PUSH1 0x20 DUP3 ADD DUP1 MLOAD PUSH1 0x1 PUSH1 0x1 PUSH1 0xE0 SHL SUB DUP4 DUP2 DUP4 AND OR DUP4 MSTORE POP POP POP POP PUSH2 0x15B1 JUMP JUMPDEST PUSH1 0x40 MLOAD PUSH1 0x1 PUSH1 0x1 PUSH1 0xA0 SHL SUB DUP4 DUP2 AND PUSH1 0x24 DUP4 ADD MSTORE PUSH1 0x44 DUP3 ADD DUP4 SWAP1 MSTORE PUSH2 0x14C5 SWAP2 DUP6 SWAP2 DUP3 AND SWAP1 PUSH4 0xA9059CBB SWAP1 PUSH1 0x64 ADD PUSH2 0x154E JUMP JUMPDEST PUSH0 PUSH0 PUSH1 0x20 PUSH0 DUP5 MLOAD PUSH1 0x20 DUP7 ADD PUSH0 DUP9 GAS CALL DUP1 PUSH2 0x15D0 JUMPI PUSH1 0x40 MLOAD RETURNDATASIZE PUSH0 DUP3 RETURNDATACOPY RETURNDATASIZE DUP2 REVERT JUMPDEST POP POP PUSH0 MLOAD RETURNDATASIZE SWAP2 POP DUP2 ISZERO PUSH2 0x15E7 JUMPI DUP1 PUSH1 0x1 EQ ISZERO PUSH2 0x15F4 JUMP JUMPDEST PUSH1 0x1 PUSH1 0x1 PUSH1 0xA0 SHL SUB DUP5 AND EXTCODESIZE ISZERO JUMPDEST ISZERO PUSH2 0x1416 JUMPI PUSH1 0x40 MLOAD PUSH4 0x5274AFE7 PUSH1 0xE0 SHL DUP2 MSTORE PUSH1 0x1 PUSH1 0x1 PUSH1 0xA0 SHL SUB DUP6 AND PUSH1 0x4 DUP3 ADD MSTORE PUSH1 0x24 ADD PUSH2 0x5E3 JUMP JUMPDEST PUSH0 PUSH1 0x20 DUP3 DUP5 SUB SLT ISZERO PUSH2 0x162D JUMPI PUSH0 PUSH0 REVERT JUMPDEST POP CALLDATALOAD SWAP2 SWAP1 POP JUMP JUMPDEST DUP1 ISZERO ISZERO DUP2 EQ PUSH2 0x13A2 JUMPI PUSH0 PUSH0 REVERT JUMPDEST PUSH0 PUSH1 0x20 DUP3 DUP5 SUB SLT ISZERO PUSH2 0x1651 JUMPI PUSH0 PUSH0 REVERT JUMPDEST DUP2 CALLDATALOAD PUSH2 0x165C DUP2 PUSH2 0x1634 JUMP JUMPDEST SWAP4 SWAP3 POP POP POP JUMP JUMPDEST PUSH1 0x1 PUSH1 0x1 PUSH1 0xA0 SHL SUB DUP2 AND DUP2 EQ PUSH2 0x13A2 JUMPI PUSH0 PUSH0 REVERT JUMPDEST PUSH0 PUSH1 0x20 DUP3 DUP5 SUB SLT ISZERO PUSH2 0x1687 JUMPI PUSH0 PUSH0 REVERT JUMPDEST DUP2 CALLDATALOAD PUSH2 0x165C DUP2 PUSH2 0x1663 JUMP JUMPDEST PUSH0 PUSH0 PUSH1 0x40 DUP4 DUP6 SUB SLT ISZERO PUSH2 0x16A3 JUMPI PUSH0 PUSH0 REVERT JUMPDEST DUP3 CALLDATALOAD SWAP2 POP PUSH1 0x20 DUP4 ADD CALLDATALOAD PUSH10 0xFFFFFFFFFFFFFFFFFFFF DUP2 AND DUP2 EQ PUSH2 0x16C3 JUMPI PUSH0 PUSH0 REVERT JUMPDEST DUP1 SWAP2 POP POP SWAP3 POP SWAP3 SWAP1 POP JUMP JUMPDEST PUSH0 PUSH0 PUSH1 0x40 DUP4 DUP6 SUB SLT ISZERO PUSH2 0x16DF JUMPI PUSH0 PUSH0 REVERT JUMPDEST DUP3 CALLDATALOAD SWAP2 POP PUSH1 0x20 DUP4 ADD CALLDATALOAD PUSH2 0x16C3 DUP2 PUSH2 0x1663 JUMP JUMPDEST PUSH0 PUSH1 0x20 DUP3 DUP5 SUB SLT ISZERO PUSH2 0x1701 JUMPI PUSH0 PUSH0 REVERT JUMPDEST DUP2 CALLDATALOAD PUSH8 0xFFFFFFFFFFFFFFFF DUP2 GT ISZERO PUSH2 0x1717 JUMPI PUSH0 PUSH0 REVERT JUMPDEST DUP3 ADD PUSH1 0xE0 DUP2 DUP6 SUB SLT ISZERO PUSH2 0x165C JUMPI PUSH0 PUSH0 REVERT JUMPDEST PUSH0 PUSH0 PUSH0 PUSH0 PUSH1 0x80 DUP6 DUP8 SUB SLT ISZERO PUSH2 0x173B JUMPI PUSH0 PUSH0 REVERT JUMPDEST DUP5 CALLDATALOAD SWAP4 POP PUSH1 0x20 DUP6 ADD CALLDATALOAD PUSH2 0x174D DUP2 PUSH2 0x1634 JUMP JUMPDEST SWAP3 POP PUSH1 0x40 DUP6 ADD CALLDATALOAD SWAP2 POP PUSH1 0x60 DUP6 ADD CALLDATALOAD PUSH2 0x1764 DUP2 PUSH2 0x1663 JUMP JUMPDEST SWAP4 SWAP7 SWAP3 SWAP6 POP SWAP1 SWAP4 POP POP JUMP JUMPDEST PUSH0 DUP2 MLOAD DUP1 DUP5 MSTORE DUP1 PUSH1 0x20 DUP5 ADD PUSH1 0x20 DUP7 ADD MCOPY PUSH0 PUSH1 0x20 DUP3 DUP7 ADD ADD MSTORE PUSH1 0x20 PUSH1 0x1F NOT PUSH1 0x1F DUP4 ADD AND DUP6 ADD ADD SWAP2 POP POP SWAP3 SWAP2 POP POP JUMP JUMPDEST PUSH1 0xE0 DUP2 MSTORE PUSH0 PUSH2 0x17AF PUSH1 0xE0 DUP4 ADD DUP11 PUSH2 0x176F JUMP JUMPDEST DUP3 DUP2 SUB PUSH1 0x20 DUP5 ADD MSTORE PUSH2 0x17C1 DUP2 DUP11 PUSH2 0x176F JUMP JUMPDEST PUSH1 0x40 DUP5 ADD SWAP9 SWAP1 SWAP9 MSTORE POP POP PUSH1 0x60 DUP2 ADD SWAP5 SWAP1 SWAP5 MSTORE PUSH1 0x1 PUSH1 0x1 PUSH1 0xA0 SHL SUB SWAP3 DUP4 AND PUSH1 0x80 DUP6 ADD MSTORE SWAP2 AND PUSH1 0xA0 DUP4 ADD MSTORE ISZERO ISZERO PUSH1 0xC0 SWAP1 SWAP2 ADD MSTORE SWAP3 SWAP2 POP POP JUMP JUMPDEST PUSH4 0x4E487B71 PUSH1 0xE0 SHL PUSH0 MSTORE PUSH1 0x21 PUSH1 0x4 MSTORE PUSH1 0x24 PUSH0 REVERT JUMPDEST PUSH1 0x4 DUP2 LT PUSH2 0x1828 JUMPI PUSH4 0x4E487B71 PUSH1 0xE0 SHL PUSH0 MSTORE PUSH1 0x21 PUSH1 0x4 MSTORE PUSH1 0x24 PUSH0 REVERT JUMPDEST SWAP1 MSTORE JUMP JUMPDEST DUP8 ISZERO ISZERO DUP2 MSTORE DUP7 ISZERO ISZERO PUSH1 0x20 DUP3 ADD MSTORE PUSH1 0xE0 DUP2 ADD PUSH2 0x184A PUSH1 0x40 DUP4 ADD DUP9 PUSH2 0x180C JUMP JUMPDEST DUP6 PUSH1 0x60 DUP4 ADD MSTORE DUP5 PUSH1 0x80 DUP4 ADD MSTORE DUP4 PUSH1 0xA0 DUP4 ADD MSTORE DUP3 PUSH1 0xC0 DUP4 ADD MSTORE SWAP9 SWAP8 POP POP POP POP POP POP POP POP JUMP JUMPDEST PUSH1 0x20 DUP1 DUP3 MSTORE PUSH1 0x9 SWAP1 DUP3 ADD MSTORE PUSH9 0x1499595B9D1C985B9D PUSH1 0xBA SHL PUSH1 0x40 DUP3 ADD MSTORE PUSH1 0x60 ADD SWAP1 JUMP JUMPDEST PUSH0 PUSH0 PUSH0 PUSH1 0x60 DUP5 DUP7 SUB SLT ISZERO PUSH2 0x18A3 JUMPI PUSH0 PUSH0 REVERT JUMPDEST DUP4 MLOAD PUSH1 0xFF DUP2 AND DUP2 EQ PUSH2 0x18B3 JUMPI PUSH0 PUSH0 REVERT JUMPDEST PUSH1 0x20 DUP6 ADD MLOAD PUSH1 0x40 DUP7 ADD MLOAD SWAP2 SWAP5 POP SWAP3 POP PUSH2 0x18CB DUP2 PUSH2 0x1634 JUMP JUMPDEST DUP1 SWAP2 POP POP SWAP3 POP SWAP3 POP SWAP3 JUMP JUMPDEST PUSH1 0x60 DUP2 ADD PUSH2 0x18E4 DUP3 DUP7 PUSH2 0x180C JUMP JUMPDEST PUSH1 0x20 DUP3 ADD SWAP4 SWAP1 SWAP4 MSTORE PUSH1 0x40 ADD MSTORE SWAP2 SWAP1 POP JUMP JUMPDEST PUSH4 0x4E487B71 PUSH1 0xE0 SHL PUSH0 MSTORE PUSH1 0x41 PUSH1 0x4 MSTORE PUSH1 0x24 PUSH0 REVERT JUMPDEST PUSH0 PUSH1 0x80 DUP3 DUP5 SUB SLT DUP1 ISZERO PUSH2 0x191A JUMPI PUSH0 PUSH0 REVERT JUMPDEST POP PUSH1 0x40 MLOAD PUSH1 0x80 DUP2 ADD PUSH8 0xFFFFFFFFFFFFFFFF DUP2 GT DUP3 DUP3 LT OR ISZERO PUSH2 0x193E JUMPI PUSH2 0x193E PUSH2 0x18F5 JUMP JUMPDEST PUSH1 0x40 SWAP1 DUP2 MSTORE DUP4 MLOAD DUP3 MSTORE PUSH1 0x20 DUP1 DUP6 ADD MLOAD SWAP1 DUP4 ADD MSTORE DUP4 DUP2 ADD MLOAD SWAP1 DUP3 ADD MSTORE PUSH1 0x60 SWAP3 DUP4 ADD MLOAD SWAP3 DUP2 ADD SWAP3 SWAP1 SWAP3 MSTORE POP SWAP2 SWAP1 POP JUMP JUMPDEST PUSH4 0x4E487B71 PUSH1 0xE0 SHL PUSH0 MSTORE PUSH1 0x11 PUSH1 0x4 MSTORE PUSH1 0x24 PUSH0 REVERT JUMPDEST DUP1 DUP3 ADD DUP1 DUP3 GT ISZERO PUSH2 0x1993 JUMPI PUSH2 0x1993 PUSH2 0x196C JUMP JUMPDEST SWAP3 SWAP2 POP POP JUMP JUMPDEST PUSH0 PUSH1 0x1 DUP3 ADD PUSH2 0x19AA JUMPI PUSH2 0x19AA PUSH2 0x196C JUMP JUMPDEST POP PUSH1 0x1 ADD SWAP1 JUMP JUMPDEST PUSH0 PUSH0 DUP4 CALLDATALOAD PUSH1 0x1E NOT DUP5 CALLDATASIZE SUB ADD DUP2 SLT PUSH2 0x19C6 JUMPI PUSH0 PUSH0 REVERT JUMPDEST DUP4 ADD DUP1 CALLDATALOAD SWAP2 POP PUSH8 0xFFFFFFFFFFFFFFFF DUP3 GT ISZERO PUSH2 0x19E0 JUMPI PUSH0 PUSH0 REVERT JUMPDEST PUSH1 0x20 ADD SWAP2 POP CALLDATASIZE DUP2 SWAP1 SUB DUP3 SGT ISZERO PUSH2 0x19F4 JUMPI PUSH0 PUSH0 REVERT JUMPDEST SWAP3 POP SWAP3 SWAP1 POP JUMP JUMPDEST PUSH1 0x1 DUP2 DUP2 SHR SWAP1 DUP3 AND DUP1 PUSH2 0x1A0F JUMPI PUSH1 0x7F DUP3 AND SWAP2 POP JUMPDEST PUSH1 0x20 DUP3 LT DUP2 SUB PUSH2 0x1A2D JUMPI PUSH4 0x4E487B71 PUSH1 0xE0 SHL PUSH0 MSTORE PUSH1 0x22 PUSH1 0x4 MSTORE PUSH1 0x24 PUSH0 REVERT JUMPDEST POP SWAP2 SWAP1 POP JUMP JUMPDEST PUSH1 0x1F DUP3 GT ISZERO PUSH2 0x14C5 JUMPI DUP1 PUSH0 MSTORE PUSH1 0x20 PUSH0 KECCAK256 PUSH1 0x1F DUP5 ADD PUSH1 0x5 SHR DUP2 ADD PUSH1 0x20 DUP6 LT ISZERO PUSH2 0x1A58 JUMPI POP DUP1 JUMPDEST PUSH1 0x1F DUP5 ADD PUSH1 0x5 SHR DUP3 ADD SWAP2 POP JUMPDEST DUP2 DUP2 LT ISZERO PUSH2 0x1A77 JUMPI PUSH0 DUP2 SSTORE PUSH1 0x1 ADD PUSH2 0x1A64 JUMP JUMPDEST POP POP POP POP POP JUMP JUMPDEST PUSH8 0xFFFFFFFFFFFFFFFF DUP4 GT ISZERO PUSH2 0x1A96 JUMPI PUSH2 0x1A96 PUSH2 0x18F5 JUMP JUMPDEST PUSH2 0x1AAA DUP4 PUSH2 0x1AA4 DUP4 SLOAD PUSH2 0x19FB JUMP JUMPDEST DUP4 PUSH2 0x1A33 JUMP JUMPDEST PUSH0 PUSH1 0x1F DUP5 GT PUSH1 0x1 DUP2 EQ PUSH2 0x1ADB JUMPI PUSH0 DUP6 ISZERO PUSH2 0x1AC4 JUMPI POP DUP4 DUP3 ADD CALLDATALOAD JUMPDEST PUSH0 NOT PUSH1 0x3 DUP8 SWAP1 SHL SHR NOT AND PUSH1 0x1 DUP7 SWAP1 SHL OR DUP4 SSTORE PUSH2 0x1A77 JUMP JUMPDEST PUSH0 DUP4 DUP2 MSTORE PUSH1 0x20 DUP2 KECCAK256 PUSH1 0x1F NOT DUP8 AND SWAP2 JUMPDEST DUP3 DUP2 LT ISZERO PUSH2 0x1B0A JUMPI DUP7 DUP6 ADD CALLDATALOAD DUP3 SSTORE PUSH1 0x20 SWAP5 DUP6 ADD SWAP5 PUSH1 0x1 SWAP1 SWAP3 ADD SWAP2 ADD PUSH2 0x1AEA JUMP JUMPDEST POP DUP7 DUP3 LT ISZERO PUSH2 0x1B26 JUMPI PUSH0 NOT PUSH1 0xF8 DUP9 PUSH1 0x3 SHL AND SHR NOT DUP5 DUP8 ADD CALLDATALOAD AND DUP2 SSTORE JUMPDEST POP POP PUSH1 0x1 DUP6 PUSH1 0x1 SHL ADD DUP4 SSTORE POP POP POP POP POP JUMP JUMPDEST PUSH0 DUP2 CALLDATALOAD PUSH2 0x1993 DUP2 PUSH2 0x1663 JUMP JUMPDEST DUP1 SLOAD PUSH1 0x1 PUSH1 0x1 PUSH1 0xA0 SHL SUB NOT AND PUSH1 0x1 PUSH1 0x1 PUSH1 0xA0 SHL SUB SWAP3 SWAP1 SWAP3 AND SWAP2 SWAP1 SWAP2 OR SWAP1 SSTORE JUMP JUMPDEST PUSH0 DUP2 CALLDATALOAD PUSH2 0x1993 DUP2 PUSH2 0x1634 JUMP JUMPDEST PUSH2 0x1B7A DUP3 DUP4 PUSH2 0x19B1 JUMP JUMPDEST PUSH8 0xFFFFFFFFFFFFFFFF DUP2 GT ISZERO PUSH2 0x1B92 JUMPI PUSH2 0x1B92 PUSH2 0x18F5 JUMP JUMPDEST PUSH2 0x1BA6 DUP2 PUSH2 0x1BA0 DUP6 SLOAD PUSH2 0x19FB JUMP JUMPDEST DUP6 PUSH2 0x1A33 JUMP JUMPDEST PUSH0 PUSH1 0x1F DUP3 GT PUSH1 0x1 DUP2 EQ PUSH2 0x1BD7 JUMPI PUSH0 DUP4 ISZERO PUSH2 0x1BC0 JUMPI POP DUP4 DUP3 ADD CALLDATALOAD JUMPDEST PUSH0 NOT PUSH1 0x3 DUP6 SWAP1 SHL SHR NOT AND PUSH1 0x1 DUP5 SWAP1 SHL OR DUP6 SSTORE PUSH2 0x1C2E JUMP JUMPDEST PUSH0 DUP6 DUP2 MSTORE PUSH1 0x20 DUP2 KECCAK256 PUSH1 0x1F NOT DUP6 AND SWAP2 JUMPDEST DUP3 DUP2 LT ISZERO PUSH2 0x1C06 JUMPI DUP7 DUP6 ADD CALLDATALOAD DUP3 SSTORE PUSH1 0x20 SWAP5 DUP6 ADD SWAP5 PUSH1 0x1 SWAP1 SWAP3 ADD SWAP2 ADD PUSH2 0x1BE6 JUMP JUMPDEST POP DUP5 DUP3 LT ISZERO PUSH2 0x1C22 JUMPI PUSH0 NOT PUSH1 0xF8 DUP7 PUSH1 0x3 SHL AND SHR NOT DUP5 DUP8 ADD CALLDATALOAD AND DUP2 SSTORE JUMPDEST POP POP PUSH1 0x1 DUP4 PUSH1 0x1 SHL ADD DUP6 SSTORE JUMPDEST POP POP POP POP PUSH2 0x1C3F PUSH1 0x20 DUP4 ADD DUP4 PUSH2 0x19B1 JUMP JUMPDEST PUSH2 0x1C4D DUP2 DUP4 PUSH1 0x1 DUP7 ADD PUSH2 0x1A7E JUMP JUMPDEST POP POP PUSH1 0x40 DUP3 ADD CALLDATALOAD PUSH1 0x2 DUP3 ADD SSTORE PUSH1 0x60 DUP3 ADD CALLDATALOAD PUSH1 0x3 DUP3 ADD SSTORE PUSH2 0x1C7B PUSH2 0x1C72 PUSH1 0x80 DUP5 ADD PUSH2 0x1B38 JUMP JUMPDEST PUSH1 0x4 DUP4 ADD PUSH2 0x1B44 JUMP JUMPDEST PUSH1 0x5 DUP2 ADD PUSH2 0x1C94 PUSH2 0x1C8E PUSH1 0xA0 DUP6 ADD PUSH2 0x1B38 JUMP JUMPDEST DUP3 PUSH2 0x1B44 JUMP JUMPDEST PUSH2 0x14C5 PUSH2 0x1CA3 PUSH1 0xC0 DUP6 ADD PUSH2 0x1B64 JUMP JUMPDEST DUP3 DUP1 SLOAD PUSH1 0xFF PUSH1 0xA0 SHL NOT AND SWAP2 ISZERO ISZERO PUSH1 0xA0 SHL PUSH1 0xFF PUSH1 0xA0 SHL AND SWAP2 SWAP1 SWAP2 OR SWAP1 SSTORE JUMP JUMPDEST PUSH1 0x20 DUP2 MSTORE DUP2 PUSH1 0x20 DUP3 ADD MSTORE DUP2 DUP4 PUSH1 0x40 DUP4 ADD CALLDATACOPY PUSH0 DUP2 DUP4 ADD PUSH1 0x40 SWAP1 DUP2 ADD SWAP2 SWAP1 SWAP2 MSTORE PUSH1 0x1F SWAP1 SWAP3 ADD PUSH1 0x1F NOT AND ADD ADD SWAP2 SWAP1 POP JUMP JUMPDEST PUSH0 PUSH1 0x20 DUP3 DUP5 SUB SLT ISZERO PUSH2 0x1CFF JUMPI PUSH0 PUSH0 REVERT JUMPDEST POP MLOAD SWAP2 SWAP1 POP JUMP INVALID LOG2 PUSH5 0x6970667358 0x22 SLT KECCAK256 LOG2 MCOPY DUP10 0xDE SLT 0xAA CALLCODE CALLF 0xDE90 SWAP5 0x2E PUSH21 0x60722F96E0488D72E4A276DE76CA3AA3D023D56473 PUSH16 0x6C634300081F00330000000000000000 "
		},
		"gasEstimates": {
			"creation": {
				"codeDepositCost": "1496800",
				"executionCost": "infinite",
				"totalCost": "infinite"
			},
			"external": {
				"allowedTokens(address)": "2567",
				"cancelMarket(uint256)": "27905",
				"claimWinnings(uint256)": "infinite",
				"createMarket((string,string,uint256,int256,address,address,bool))": "infinite",
				"emergencyRefund(uint256)": "infinite",
				"isPaused()": "2371",
				"marketConfigs(uint256)": "infinite",
				"marketCount()": "2383",
				"marketStatuses(uint256)": "11216",
				"math()": "2415",
				"minBetAmount()": "2404",
				"owner()": "2364",
				"placeBet(uint256,bool,uint256,address)": "infinite",
				"referralShare()": "2361",
				"renounceOwnership()": "infinite",
				"resolveMarket(uint256,uint80)": "infinite",
				"resolver()": "2349",
				"setMath(address)": "26860",
				"setPaused(bool)": "26778",
				"setResolver(address)": "26838",
				"setTreasury(address)": "26792",
				"sweepUnclaimed(uint256)": "infinite",
				"totalFee()": "2384",
				"transferOwnership(address)": "infinite",
				"treasury()": "2393",
				"userBets(uint256,address)": "7099",
				"withdrawCancelled(uint256)": "infinite"
			},
			"internal": {
				"_payout(address,address,uint256)": "infinite",
				"_refund(uint256,address)": "infinite"
			}
		},
		"methodIdentifiers": {
			"allowedTokens(address)": "e744092e",
			"cancelMarket(uint256)": "7c16cd9e",
			"claimWinnings(uint256)": "677bd9ff",
			"createMarket((string,string,uint256,int256,address,address,bool))": "913b2dba",
			"emergencyRefund(uint256)": "70e5deb9",
			"isPaused()": "b187bd26",
			"marketConfigs(uint256)": "e4cfcc23",
			"marketCount()": "ec979082",
			"marketStatuses(uint256)": "eec8138e",
			"math()": "addf3804",
			"minBetAmount()": "fa968eea",
			"owner()": "8da5cb5b",
			"placeBet(uint256,bool,uint256,address)": "c1de1343",
			"referralShare()": "e859e56c",
			"renounceOwnership()": "715018a6",
			"resolveMarket(uint256,uint80)": "5cabbbf8",
			"resolver()": "04f3bcec",
			"setMath(address)": "56caefb2",
			"setPaused(bool)": "16c38b3c",
			"setResolver(address)": "4e543b26",
			"setTreasury(address)": "f0f44260",
			"sweepUnclaimed(uint256)": "e50e64d5",
			"totalFee()": "1df4ccfc",
			"transferOwnership(address)": "f2fde38b",
			"treasury()": "61d027b3",
			"userBets(uint256,address)": "7d06a8e1",
			"withdrawCancelled(uint256)": "10fbebf7"
		}
	},
	"abi": [
		{
			"inputs": [
				{
					"internalType": "address",
					"name": "_math",
					"type": "address"
				},
				{
					"internalType": "address",
					"name": "_resolver",
					"type": "address"
				}
			],
			"stateMutability": "nonpayable",
			"type": "constructor"
		},
		{
			"inputs": [
				{
					"internalType": "address",
					"name": "owner",
					"type": "address"
				}
			],
			"name": "OwnableInvalidOwner",
			"type": "error"
		},
		{
			"inputs": [
				{
					"internalType": "address",
					"name": "account",
					"type": "address"
				}
			],
			"name": "OwnableUnauthorizedAccount",
			"type": "error"
		},
		{
			"inputs": [
				{
					"internalType": "address",
					"name": "token",
					"type": "address"
				}
			],
			"name": "SafeERC20FailedOperation",
			"type": "error"
		},
		{
			"anonymous": false,
			"inputs": [
				{
					"indexed": true,
					"internalType": "uint256",
					"name": "marketId",
					"type": "uint256"
				},
				{
					"indexed": true,
					"internalType": "address",
					"name": "user",
					"type": "address"
				},
				{
					"indexed": false,
					"internalType": "uint256",
					"name": "amount",
					"type": "uint256"
				},
				{
					"indexed": false,
					"internalType": "bool",
					"name": "isYes",
					"type": "bool"
				},
				{
					"indexed": false,
					"internalType": "address",
					"name": "referrer",
					"type": "address"
				}
			],
			"name": "BetPlaced",
			"type": "event"
		},
		{
			"anonymous": false,
			"inputs": [
				{
					"indexed": true,
					"internalType": "uint256",
					"name": "marketId",
					"type": "uint256"
				},
				{
					"indexed": false,
					"internalType": "uint256",
					"name": "adminAmount",
					"type": "uint256"
				},
				{
					"indexed": false,
					"internalType": "uint256",
					"name": "referrerAmount",
					"type": "uint256"
				},
				{
					"indexed": false,
					"internalType": "address",
					"name": "referrer",
					"type": "address"
				}
			],
			"name": "FeesDistributed",
			"type": "event"
		},
		{
			"anonymous": false,
			"inputs": [
				{
					"indexed": true,
					"internalType": "uint256",
					"name": "marketId",
					"type": "uint256"
				}
			],
			"name": "MarketCancelled",
			"type": "event"
		},
		{
			"anonymous": false,
			"inputs": [
				{
					"indexed": true,
					"internalType": "uint256",
					"name": "marketId",
					"type": "uint256"
				},
				{
					"indexed": false,
					"internalType": "string",
					"name": "question",
					"type": "string"
				},
				{
					"indexed": true,
					"internalType": "address",
					"name": "token",
					"type": "address"
				}
			],
			"name": "MarketCreated",
			"type": "event"
		},
		{
			"anonymous": false,
			"inputs": [
				{
					"indexed": true,
					"internalType": "uint256",
					"name": "marketId",
					"type": "uint256"
				},
				{
					"indexed": false,
					"internalType": "enum LucidMarketsV2.MarketOutcome",
					"name": "outcome",
					"type": "uint8"
				},
				{
					"indexed": false,
					"internalType": "int256",
					"name": "finalPrice",
					"type": "int256"
				},
				{
					"indexed": false,
					"internalType": "uint256",
					"name": "poolSize",
					"type": "uint256"
				}
			],
			"name": "MarketResolved",
			"type": "event"
		},
		{
			"anonymous": false,
			"inputs": [
				{
					"indexed": true,
					"internalType": "address",
					"name": "previousOwner",
					"type": "address"
				},
				{
					"indexed": true,
					"internalType": "address",
					"name": "newOwner",
					"type": "address"
				}
			],
			"name": "OwnershipTransferred",
			"type": "event"
		},
		{
			"anonymous": false,
			"inputs": [
				{
					"indexed": true,
					"internalType": "uint256",
					"name": "marketId",
					"type": "uint256"
				},
				{
					"indexed": true,
					"internalType": "address",
					"name": "user",
					"type": "address"
				},
				{
					"indexed": false,
					"internalType": "uint256",
					"name": "amount",
					"type": "uint256"
				},
				{
					"indexed": false,
					"internalType": "uint256",
					"name": "feePaid",
					"type": "uint256"
				}
			],
			"name": "WinningsClaimed",
			"type": "event"
		},
		{
			"inputs": [
				{
					"internalType": "address",
					"name": "",
					"type": "address"
				}
			],
			"name": "allowedTokens",
			"outputs": [
				{
					"internalType": "bool",
					"name": "",
					"type": "bool"
				}
			],
			"stateMutability": "view",
			"type": "function"
		},
		{
			"inputs": [
				{
					"internalType": "uint256",
					"name": "_id",
					"type": "uint256"
				}
			],
			"name": "cancelMarket",
			"outputs": [],
			"stateMutability": "nonpayable",
			"type": "function"
		},
		{
			"inputs": [
				{
					"internalType": "uint256",
					"name": "_id",
					"type": "uint256"
				}
			],
			"name": "claimWinnings",
			"outputs": [],
			"stateMutability": "nonpayable",
			"type": "function"
		},
		{
			"inputs": [
				{
					"components": [
						{
							"internalType": "string",
							"name": "question",
							"type": "string"
						},
						{
							"internalType": "string",
							"name": "metadataURI",
							"type": "string"
						},
						{
							"internalType": "uint256",
							"name": "endTime",
							"type": "uint256"
						},
						{
							"internalType": "int256",
							"name": "targetPrice",
							"type": "int256"
						},
						{
							"internalType": "address",
							"name": "oracleFeed",
							"type": "address"
						},
						{
							"internalType": "address",
							"name": "bettingToken",
							"type": "address"
						},
						{
							"internalType": "bool",
							"name": "isLessThan",
							"type": "bool"
						}
					],
					"internalType": "struct LucidMarketsV2.MarketConfig",
					"name": "params",
					"type": "tuple"
				}
			],
			"name": "createMarket",
			"outputs": [],
			"stateMutability": "nonpayable",
			"type": "function"
		},
		{
			"inputs": [
				{
					"internalType": "uint256",
					"name": "_id",
					"type": "uint256"
				}
			],
			"name": "emergencyRefund",
			"outputs": [],
			"stateMutability": "nonpayable",
			"type": "function"
		},
		{
			"inputs": [],
			"name": "isPaused",
			"outputs": [
				{
					"internalType": "bool",
					"name": "",
					"type": "bool"
				}
			],
			"stateMutability": "view",
			"type": "function"
		},
		{
			"inputs": [
				{
					"internalType": "uint256",
					"name": "",
					"type": "uint256"
				}
			],
			"name": "marketConfigs",
			"outputs": [
				{
					"internalType": "string",
					"name": "question",
					"type": "string"
				},
				{
					"internalType": "string",
					"name": "metadataURI",
					"type": "string"
				},
				{
					"internalType": "uint256",
					"name": "endTime",
					"type": "uint256"
				},
				{
					"internalType": "int256",
					"name": "targetPrice",
					"type": "int256"
				},
				{
					"internalType": "address",
					"name": "oracleFeed",
					"type": "address"
				},
				{
					"internalType": "address",
					"name": "bettingToken",
					"type": "address"
				},
				{
					"internalType": "bool",
					"name": "isLessThan",
					"type": "bool"
				}
			],
			"stateMutability": "view",
			"type": "function"
		},
		{
			"inputs": [],
			"name": "marketCount",
			"outputs": [
				{
					"internalType": "uint256",
					"name": "",
					"type": "uint256"
				}
			],
			"stateMutability": "view",
			"type": "function"
		},
		{
			"inputs": [
				{
					"internalType": "uint256",
					"name": "",
					"type": "uint256"
				}
			],
			"name": "marketStatuses",
			"outputs": [
				{
					"internalType": "bool",
					"name": "resolved",
					"type": "bool"
				},
				{
					"internalType": "bool",
					"name": "cancelled",
					"type": "bool"
				},
				{
					"internalType": "enum LucidMarketsV2.MarketOutcome",
					"name": "outcome",
					"type": "uint8"
				},
				{
					"internalType": "uint256",
					"name": "totalPool",
					"type": "uint256"
				},
				{
					"internalType": "uint256",
					"name": "totalYes",
					"type": "uint256"
				},
				{
					"internalType": "uint256",
					"name": "totalNo",
					"type": "uint256"
				},
				{
					"internalType": "uint256",
					"name": "winningPool",
					"type": "uint256"
				}
			],
			"stateMutability": "view",
			"type": "function"
		},
		{
			"inputs": [],
			"name": "math",
			"outputs": [
				{
					"internalType": "contract ILucidMath",
					"name": "",
					"type": "address"
				}
			],
			"stateMutability": "view",
			"type": "function"
		},
		{
			"inputs": [],
			"name": "minBetAmount",
			"outputs": [
				{
					"internalType": "uint256",
					"name": "",
					"type": "uint256"
				}
			],
			"stateMutability": "view",
			"type": "function"
		},
		{
			"inputs": [],
			"name": "owner",
			"outputs": [
				{
					"internalType": "address",
					"name": "",
					"type": "address"
				}
			],
			"stateMutability": "view",
			"type": "function"
		},
		{
			"inputs": [
				{
					"internalType": "uint256",
					"name": "_id",
					"type": "uint256"
				},
				{
					"internalType": "bool",
					"name": "_isYes",
					"type": "bool"
				},
				{
					"internalType": "uint256",
					"name": "_amt",
					"type": "uint256"
				},
				{
					"internalType": "address",
					"name": "_ref",
					"type": "address"
				}
			],
			"name": "placeBet",
			"outputs": [],
			"stateMutability": "payable",
			"type": "function"
		},
		{
			"inputs": [],
			"name": "referralShare",
			"outputs": [
				{
					"internalType": "uint256",
					"name": "",
					"type": "uint256"
				}
			],
			"stateMutability": "view",
			"type": "function"
		},
		{
			"inputs": [],
			"name": "renounceOwnership",
			"outputs": [],
			"stateMutability": "nonpayable",
			"type": "function"
		},
		{
			"inputs": [
				{
					"internalType": "uint256",
					"name": "_id",
					"type": "uint256"
				},
				{
					"internalType": "uint80",
					"name": "_roundId",
					"type": "uint80"
				}
			],
			"name": "resolveMarket",
			"outputs": [],
			"stateMutability": "nonpayable",
			"type": "function"
		},
		{
			"inputs": [],
			"name": "resolver",
			"outputs": [
				{
					"internalType": "contract ILucidResolver",
					"name": "",
					"type": "address"
				}
			],
			"stateMutability": "view",
			"type": "function"
		},
		{
			"inputs": [
				{
					"internalType": "address",
					"name": "_m",
					"type": "address"
				}
			],
			"name": "setMath",
			"outputs": [],
			"stateMutability": "nonpayable",
			"type": "function"
		},
		{
			"inputs": [
				{
					"internalType": "bool",
					"name": "_s",
					"type": "bool"
				}
			],
			"name": "setPaused",
			"outputs": [],
			"stateMutability": "nonpayable",
			"type": "function"
		},
		{
			"inputs": [
				{
					"internalType": "address",
					"name": "_r",
					"type": "address"
				}
			],
			"name": "setResolver",
			"outputs": [],
			"stateMutability": "nonpayable",
			"type": "function"
		},
		{
			"inputs": [
				{
					"internalType": "address",
					"name": "_t",
					"type": "address"
				}
			],
			"name": "setTreasury",
			"outputs": [],
			"stateMutability": "nonpayable",
			"type": "function"
		},
		{
			"inputs": [
				{
					"internalType": "uint256",
					"name": "_id",
					"type": "uint256"
				}
			],
			"name": "sweepUnclaimed",
			"outputs": [],
			"stateMutability": "nonpayable",
			"type": "function"
		},
		{
			"inputs": [],
			"name": "totalFee",
			"outputs": [
				{
					"internalType": "uint256",
					"name": "",
					"type": "uint256"
				}
			],
			"stateMutability": "view",
			"type": "function"
		},
		{
			"inputs": [
				{
					"internalType": "address",
					"name": "newOwner",
					"type": "address"
				}
			],
			"name": "transferOwnership",
			"outputs": [],
			"stateMutability": "nonpayable",
			"type": "function"
		},
		{
			"inputs": [],
			"name": "treasury",
			"outputs": [
				{
					"internalType": "address",
					"name": "",
					"type": "address"
				}
			],
			"stateMutability": "view",
			"type": "function"
		},
		{
			"inputs": [
				{
					"internalType": "uint256",
					"name": "",
					"type": "uint256"
				},
				{
					"internalType": "address",
					"name": "",
					"type": "address"
				}
			],
			"name": "userBets",
			"outputs": [
				{
					"internalType": "uint256",
					"name": "yesAmount",
					"type": "uint256"
				},
				{
					"internalType": "uint256",
					"name": "noAmount",
					"type": "uint256"
				},
				{
					"internalType": "address",
					"name": "referrer",
					"type": "address"
				},
				{
					"internalType": "bool",
					"name": "claimed",
					"type": "bool"
				}
			],
			"stateMutability": "view",
			"type": "function"
		},
		{
			"inputs": [
				{
					"internalType": "uint256",
					"name": "_id",
					"type": "uint256"
				}
			],
			"name": "withdrawCancelled",
			"outputs": [],
			"stateMutability": "nonpayable",
			"type": "function"
		},
		{
			"stateMutability": "payable",
			"type": "receive"
		}
	]
}